:100B2F00D2D1CDEAB3C9B0E5C0B6B8F9D2A9C1BF29
:100B3F0000D2D1CDEAB3C9B0A2C4AACEF7C1D6D2E2
:100B4F00A9C1BF00D5D4DAB3D4D2A9002020002088
:100B5F002020202020202000B3D4D2A9CAB1BCE489
:100B6F00B5BDC1CB00C7EBB0B4CAB1B3D4D2A900E5
:100B7F003000B0A2C4AACEF7C1D60030303A203030
:090B8F003000B0E5C0B6B8F90071
:100D8400033A373B170343003A16034B003A160263
:100D94005600000139000155000123000141000102
:070DA4004200C1000138000C
:1002CA00E53924FE605224FC603524F9605F14701D
:1002DA00030203911470030203F01470030204343E
:1002EA00240B600302046CE4F5390538E5386541EE
:1002FA00600302046CF5387BFF7A0B792F8016E4D1
:10030A00F5390538E5386542600302046CF5387B37
:10031A00FF7A0B7940020D09C2ACE4F539D2A0D2BA
:10032A00AC7BFF7A0B7953120D09D20022E52364C4
:10033A000170260545E545D394174003E4F5457D4C
:10034A00057F04120E4EE54575F00A84900BD29390
:10035A00FF120FA7E5450203E8E5236402600302E2
:10036A00046C054DE54DD394174003E4F54D7D0526
:10037A007F04120E4EE54D75F00A84900BD293FF5E
:10038A00120FA7E54D8057E523640170250544E562
:10039A0044D3943B4003E4F5447D077F04120E4E98
:1003AA00E54475F00A84900BD293FF120FA7E54437
:1003BA00802CE5236402600302046C054CE54CD3EF
:1003CA00943B4003E4F54C7D077F04120E4EE54C46
:1003DA0075F00A84900BD293FF120FA7E54C75F0C3
:1003EA000A84E5F08038E523640170170541E54188
:1003FA00D394094003E4F5417D037F03120E4EE5D1
:10040A0041801BE523640270590542E542D39409F1
:10041A004003E4F5427D037F03120E4EE542900B42
:10042A00D293FF120FA7E4F53922E4F539E52364E4
:10043A000170028006E523640270277BFF7A0B793C
:10044A005B7D037F03120DFB7BFF7A0B795EE4FD74
:10045A007F04120DFB7BFF7A0B795E7D057F041208
:03046A000DFB2265
:10083C007D037F02120E4E7F20120FA7E53C75F050
:10084C000A84900BD293FF120FA7E53C75F00A8433
:10085C00E5F0900BD293FF120FA77F3A120FA7E58A
:10086C003B75F00A84900BD293FF120FA7E53B75F2
:10087C00F00A84E5F0900BD293FF120FA77F3A1287
:10088C000FA7E53A75F00A84900BD293FF120FA7CD
:10089C00E53A75F00A84E5F0900BD293FF120FA79E
:1008AC007D047F03120E4E7F20120FA7AE3FAF4088
:1008BC007C007D6412028674D22FF582740B3EF597
:1008CC0083E493FF120FA7AE3FAF407C007D641210
:1008DC0002867E007F0ACFCDCFCECCCE120286749C
:1008EC00D22FF582740B3EF583E493FF120FA77F92
:1008FC002E120FA7AE3FAF407C007D0A1202867409
:0F090C00D22DF582740B3CF583E493FF020FA705
:100F2F005389F0438901758A18758CFCC28DD28C58
:070F3F00D2A9D2AFC2B92212
:03000B00020C3CA8
:040C3C00C0E0C0D084
:100C4000758A18758CFC0522E52270020521C39473
:100C5000E8E52194034027752100752200053AE557
:100C60003A943C4019753A00053BE53B943C400EF4
:0E0C7000753B00053CE53C94184003753C00C4
:050C7E00D0D0D0E032EF
:10046D00120F46120F7E120F2F120D47120DBF12D3
:10047D0005DF8F39E544B53B08E545B53C03300054
:10048D000FE54C653B7023E54D653C701D20001A52
:10049D007BFF7A0B7967120D09B295C2ACB2A0D26F
:1004AD00AC7BFF7A0B7974120D091202CA0557E560
:1004BD005770020556AE56FF7C007D19120231EDC4
:1004CD004C701BC2AC120AB4E4FBFA7920784112CD
:1004DD00002612016A8E3F8F4012083CD2ACAE3F0F
:1004ED00AF407C037DE812028674082FF8E6F547CD
:1004FD00AE3FAF407C037DE8120286AA04AB057DBA
:10050D00647C00AF03AE0212028674082FF8E6F584
:10051D00487D647C00AF03AE02120286AA04AB05CF
:10052D007D0A7C00AF03AE0212028674082FF8E636
:10053D004480F5497D0A7C00AF03AE021202867439
:10054D00082DF8E6F54A7B007A0079467D041209FC
:10055D001BAE56AF577C007DC8120231ED4C6003C7
:10056D0002047CAE3FAF407C037DE8120286EF248F
:10057D0030F54FAE3FAF407C037DE8120286AA04F2
:10058D00AB057D647C00AF03AE02120286EF243012
:10059D00F5507D647C00AF03AE02120286AA04AB57
:1005AD00057D0A7C00AF03AE02120286EF2430F502
:1005BD005175522E7D0A7C00AF03AE02120286EDFC
:1005CD002430F553E4F554FB7A00794E120D0902EF
:0205DD00047C9C
:0300230002074190
:10074100C0E0C0F0C083C082C0D075D000C000C07E
:0D07510001C002C003C004C005C006C007FF
:10075E00209803020821C29874242558F8A699E51A
:10076E0024B42B0405588003755800E558640A60BC
:10077E0003020821F558E52DB43105C2A002082167
:10078E00E52D6432702BD2A07BFF7A0B795B7D0353
:10079E007F03120DFB7BFF7A0B795EE4FD7F041263
:1007AE000DFB7BFF7A0B795E7D057F04120DFB80BE
:1007BE0062E52D6433702C7BFF7A0B797F7D037F8E
:1007CE0003120DFB7BFF7A0B7981E4FD7F04120D82
:1007DE00FB7BFF7A0B798A7D057F04120DFB752357
:1007EE00018030E52D6434702A7BFF7A0B797F7D92
:1007FE00037F03120DFB7BFF7A0B7991E4FD7F04DF
:10080E00120DFB7BFF7A0B798A7D057F04120DFB9F
:03081E007523023D
:10082100D007D006D005D004D003D002D001D0002B
:0B083100D0D0D082D083D0F0D0E032D5
:100F4600439850438920758780758DFA858D8BC2AD
:060F5600ACD2AFD28E22E6
:0E0F8D00C2ACC2998F993099FDC299D2AC22A4
:100E24008B198A1A891BAB19AA1AA91B1201EBFF89
:100E34006017120F8D7F057E00120FB37401251BFE
:0A0E4400F51BE4351AF51A80DD22D3
:100A390041542B43495053454E443D302C313600E7
:100A490041542B43574D4F44453D320041542B43AC
:100A5900575341503D2245535038323636222C22C5
:100A6900313233343536222C31312C300041542B7C
:100A790043495041503D223139322E3136382E34D6
:100A89002E31220041542B5253540041542B4349D7
:100A9900504D55583D310041542B4349505345520F
:0B0AA9005645523D312C3830383000EB
:100DAB0011083F065B4F666D7D077F6F777C395E61
:030DBB007971004B
:06091B008B5C8A5D895E21
:10092100E4F55FED14F560F55FE55FC39408507B76
:10093100E55FB40800504D90093FF828287302097B
:100941005702095B02095F02096302096702096F25
:1009510002097702097FD2A4800ED2A48012D2A408
:100961008016D2A4801AC2A4D2A3D2A28016C2A495
:10097100D2A3C2A2800EC2A4C2A3D2A28006C2A4E4
:10098100C2A3C2A2C3E55F9560FFE49400AB5CAA79
:100991005DA95E8F82F583120204F5807F647E007B
:0B09A100120FB3E4F580055F02092A85
:0109AC002228
:100D09008B5C8A5D895E7BFF7A0A7939120BF47FE5
:100D19000A7E00120EE0AB5CAA5DA95E1201EBFF30
:100D29006017120F8D7F057E00120FB37401255EC7
:0E0D3900F55EE4355DF55D80DD7F0A020F8D0D
:100BF4008B5F8A608961AB5FAA60A9611201EBFF18
:100C04006017120F8D7F057E00120FB374012561EA
:100C1400F561E43560F56080DD7F057E00120FB379
:100C24007F0D120F8D7F057E00120FB37F0A120F06
:080C34008D7F0A7E00020EE034
:100D47007BFF7A0A7949120BF47BFF7A0A795512ED
:100D57000BF47BFF7A0A7976120BF47BFF7A0A7918
:100D67008D120BF47FD07E07120EE07BFF7A0A7993
:0D0D770094120BF47BFF7A0A79A0020BF4B2
:0B0FB300EF1FAC0670011E4C70F62210
:100EE000D3EF9400EE940040147D6E7C00ED1D70F5
:0D0EF000011CED4C70F7EF1F70E61E80E353
:010EFD0022D2
:1005DF00E4F55C7590FFC2932097063097FD755C2C
:1005EF00012096083096FDB2A1755C052095147F09
:1005FF00147E00120EE03095FD7F147E00120EE087
:10060F00755C092094147F147E00120EE03094FD67
:10061F007F147E00120EE0755C0D7590FFC2922064
:10062F0097063097FD755C022096147F147E00129A
:10063F000EE03096FD7F147E00120EE0755C0620F2
:10064F0095147F147E00120EE03095FD7F147E000E
:10065F00120EE0755C0A2094147F147E00120EE0D7
:10066F003094FD7F147E00120EE0755C0E7590FFC6
:10067F00C2912097147F147E00120EE03097FD7FF9
:10068F00147E00120EE0755C032096147F147E001A
:10069F00120EE03096FD7F147E00120EE0755C079F
:1006AF002095147F147E00120EE03095FD7F147E8E
:1006BF0000120EE0755C0B2094147F147E00120E56
:1006CF00E03094FD7F147E00120EE0755C0F759084
:1006DF00FFC2902097147F147E00120EE03097FD1A
:1006EF007F147E00120EE0755C042096147F147E3A
:1006FF0000120EE03096FD7F147E00120EE0755C46
:10070F00082095147F147E00120EE03095FD7F14A3
:10071F007E00120EE0755C0C2094147F147E001284
:10072F000EE03094FD7F147E00120EE0755C10AF6A
:01073F005C5D
:010740002296
:100B9800202020202020202020202020202020204D
:100BA800002D2DD6C7C4DCD2A9CFE4CFB5CDB32D47
:100BB8002D00CAB1BCE4A3BA00C1D0B1EDA3BA20DC
:100BC80020202020202020A1E60030313233343587
:100BD80036373839414243444546003031323334A0
:0C0BE80035363738394142434445460059
:0D0F17007F197E00120F24D2A77F327E00CA
:0B0F2400EF1FAC0670011E4C70F6229F
:0C0F9B008F80C2A5C2A6120F17C2A722A9
:0C0FA7008F80C2A5D2A6120F17C2A7228D
:100E4E00EF24FE601014601314601624037016ED68
:100E5E002480FB8010ED2490FB800AED2488FB801B
:0A0E6E0004ED2498FBAF03020F9B74
:100EFE00AA03120E4EEAC4540F900BD293FF120F98
:090F0E00A7EA540F93FF020FA79C
:060DF5007BFF7A0B7998E8
:100DFB008B5C8A5D895E120E4EAB5CAA5DA95E129E
:100E0B0001EBFF6013120FA77401255EF55EE4354D
:090E1B005DF55D120F2080E1225B
:10000E00AA03120E4EBA01047F0F80027FC0120F98
:02001E009B2223
:0F0F7E007F30120F9B7F0C120F9B7F01020F9B86
:100E9E007BFF7A0B7998E4FD7F01120DFB7F021226
:100EAE000DF57F03120DF57BFF7A0B79987F040207
:020EBE000DFB2A
:100DBF007BFF7A0B79A9E4FD7F01120DFB7BFF7A94
:100DCF000B79BA7F02120DFB7BFF7A0B79C17F0380
:100DDF00120DFB7BFF7A0B79987F04120DFBE4FB5E
:060DEF000D7F0102000E61
:100F5C00C2B77F4B7E00120FB3D2B77F027E000266
:020F6C000FB3C1
:100C8300E4F56330B712E563C39414500B05637F37
:100C9300017E00120FB380EBE563C3941440037F1E
:100CA3000122E4F56320B712E563C39414500B05E6
:100CB300637F017E00120FB380EBE563C39414409E
:060CC300037F01227F0007
:010CC9002208
:100EC000E4F565C2B70000D2B7000030B70575651C
:0F0ED000018003E4F5657F057E00120FB3AF6567
:010EDF0022F0
:100E7800E4F563F564FFF563120EC0EFC433333352
:100E88005480FEE564C3134EF5640563E563C394BB
:050E98000840E5AF6415
:010E9D002232
:020CCA008F6336
:100CCC00E4F564F565F564E5635401F565E563C326
:100CDC0013F563E565600FC2B70000D2B77F067EDF
:100CEC0000120FB3800DC2B77F067E00120FB3D275
:0C0CFC00B700000564E564C3940840CB19
:010D080022C8
:100F6E00120F5C120C837FCC120CCA7F44020CCA87
:07000300120F5C120C8322B6
:100AB400E4FFF560F561F562120F6E120F5C120C23
:100AC400837FCC120CCA7FBE120CCA120E788F60C0
:100AD400120E78EFFE7C00E42560F562EC3EF561D1
:100AE40054F8FEEEB4F821E562F4FFE561F4FEEF9C
:100AF4002401F562E43EF561FCAD62E4120131E4E7
:100B0400FBFA798078BD800FAC61AD62E4120131EB
:100B1400E4FBFA7980783D1200268F5F8E5E8D5D4E
:0A0B24008C5CAF5FAE5EAD5DAC5CB3
:010B2E0022A4
:10002600EC4D6011E8497017ED33EC3304600DE4D4
:10003600FCFFFEFD22E933E8330470F80201D61214
:1000460001A158046009E4CC248150062850090215
:1000560001E02840030201DDC0E0EB4A7044B980AC
:1000660006D0E0FB0201CCEF4E701CBD8008EBFF12
:10007600EAFEE9FD80EBE98DF0A4FEE5F002010F52
:10008600E9CDF9EAFEEBFFEF89F0A4FCE5F0CE89B5
:10009600F0A42EFFE435F0CD89F0A42DFEE435F072
:1000A6008067EF4E7005BD80D780C3EF8BF0A4ACA0
:1000B600F0EE8BF0A42CFCE435F0F8EF8AF0A42CDB
:1000C600E5F038FCE433CB8DF0A42CFCE5F03BF8EE
:1000D600EE8AF0A42CFCE5F038F8E433CF89F0A4DE
:1000E6002CFCE5F038CF3400CE89F0A42FFFE5F0E4
:1000F6003EFEE433C98DF0A42EFEE5F039CD8AF03C
:10010600A42FFFE5F03EFEE43DFD33D0E0FB5007B3
:100116000BBB000F0201E0EC2CFCEF33FFEE33FECD
:06012600ED33FD0201B8FB
:10012C0075F020800E75F010800575F0087D007E4E
:10013C00007F003392D530D5031202BCEC33401053
:10014C00EF33FFEE33FEED33FDEC33FCD5F0ED2257
:0E015C00E5F0247EA2D513CC92E7CDCEFF2293
:10016A00EDD2E7CD33EC3392D524814006E4FFFE8D
:10017A00FDFC22FCE4CFCECDCC24E0501174FF80EC
:10018A00EDC3CC13CCCD13CDCE13CECF13CF047089
:07019A00F030D5DE0202BCCB
:1001A100E9D2E7C933E833F892D5EDD2E7CD33ECA4
:0701B10033FC5002B2D5221D
:1001B800EC30E7100FBF000C0EBE00080DBD0004A8
:1001C8000BEB6014A2D5EB13FCED92E7FD2274FF54
:1001D800FCFDFEFF22E480F8A2D574FF13FC7D80AD
:0301E800E480EFC1
:030000000209AD45
:0C09AD00787FE4F6D8FD7581650209F43E
:1001EB00BB010689828A83E0225002E722BBFE0212
:0901FB00E32289828A83E4932245
:10020400BB010CE58229F582E5833AF583E02250AF
:1002140006E92582F8E622BBFE06E92582F8E222F9
:0D022400E58229F582E5833AF583E4932213
:10023100BC000BBE0029EF8DF084FFADF022E4CCB1
:10024100F875F008EF2FFFEE33FEEC33FCEE9DEC7A
:10025100984005FCEE9DFE0FD5F0E9E4CEFD22EDC0
:10026100F8F5F0EE8420D21CFEADF075F008EF2F0A
:10027100FFED33FD4007985006D5F0F222C398FDFB
:050281000FD5F0EA2298
:10028600C2D5EC30E709B2D5E4C39DFDE49CFCEE93
:1002960030E715B2D5E4C39FFFE49EFE120231C3D8
:1002A600E49DFDE49CFC800312023130D507C3E4D3
:0602B6009FFFE49EFE2202
:0E02BC00C3E49FFFE49EFEE49DFDE49CFC2253
:1009B90002046DE493A3F8E493A34003F68001F2E3
:1009C90008DFF48029E493A3F85407240CC8C3333F
:1009D900C4540F4420C8834004F456800146F6DF0E
:1009E900E4800B0102040810204080900D84E47E0D
:1009F900019360BCA3FF543F30E509541FFEE49303
:100A0900A360010ECF54C025E060A840B8E493A3C9
:100A1900FAE493A3F8E493A3C8C582C8CAC583CAF4
:100A2900F0A3C8C582C8CAC583CADFE9DEE780BEAC
:010DBE000034
:00000001FF
