:0808910012087A1202CA80FB72
:1008190011223F065B4F666D7D077F6F777C395EDE
:03082900797100E2
:06040F008B188A19891AFE
:10041500E4F51BED14F51CF51BE51BC39408507B97
:10042500E51BB40800504D900433F82828730204E6
:100435004B02044F02045302045702045B02046397
:1004450002046B020473D2A4800ED2A48012D2A43B
:100455008016D2A4801AC2A4D2A3D2A28016C2A4A6
:10046500D2A3C2A2800EC2A4C2A3D2A28006C2A4F5
:10047500C2A3C2A2C3E51B951CFFE49400AB18AA56
:1004850019A91A8F82F583120204F5807F647E0014
:0B049500120886E4F580051B02041E1F
:0104A0002239
:10084A00C2B77F4B7E00120886D2B77F027E0002B3
:02085A0008860E
:10066A00E4F51F30B712E51FC39414500B051F7F22
:10067A00017E0012088680EBE51FC3941440037FB5
:10068A000122E4F51F20B712E51FC39414500B058D
:10069A001F7F017E0012088680EBE51FC394144079
:0606AA00037F01227F0026
:0106B0002227
:10000300E4F521C2B70000D2B7000030B70575216F
:0F001300018003E4F5217F057E00120886AF21EE
:0100220022BB
:1007D500E4F51FF520FFF51F120003EFC433333393
:1007E5005480FEE520C3134EF520051FE51FC39475
:0507F5000840E5AF2003
:0107FA0022DC
:0206F1008F1F59
:1006F300E4F520F521F520E51F5401F521E51FC39D
:1007030013F51FE521600FC2B70000D2B77F067E45
:1007130000120886800DC2B77F067E00120886D2BB
:0C072300B700000520E520C3940840CB7F
:01072F0022A7
:10085C0012084A12066A7FCC1206F17F440206F196
:0708990012084A12066A2250
:10052D00E4FFF51CF51DF51E12085C12084A1206B3
:10053D006A7FCC1206F17FBE1206F11207D58F1C11
:10054D001207D5EFFE7C00E4251CF51EEC3EF51DD3
:10055D0054F8FEEEB4F821E51EF4FFE51DF4FEEFB0
:10056D002401F51EE43EF51DFCAD1EE4120131E43F
:10057D00FBFA798078BD800FAC1DAD1EE412013100
:10058D00E4FBFA7980783D1200268F1B8E1A8D19A7
:0A059D008C18AF1BAE1AAD19AC1894
:0105A7002231
:0B088600EF1FAC0670011E4C70F62244
:1007FB00D3EF9400EE940040147D6E7C00ED1D70E1
:0D080B00011CED4C70F7EF1F70E61E80E33E
:0108180022BD
:04082C00023D000089
:10083400439850438920758780758DFA858D8BC2C6
:06084400ACD2AFD28E22FF
:0E086C00C2ACC2998F993099FDC299D2AC22CC
:1007AB008B3F8A408941AB3FAA40A9411201EBFF25
:1007BB00601712086C7F057E0012088674012541B4
:0A07CB00F541E43540F54080DD22E1
:1005A80041542B43495053454E443D302C3700416C
:1005B800542B43574D4F44453D320041542B43572C
:1005C8005341503D2245535038323636222C223181
:1005D8003233343536222C31312C300041542B4300
:1005E800495041503D223139322E3136382E342E81
:1005F80031220041542B5253540041542B4349504B
:100608004D55583D310041542B434950534552569E
:0A06180045523D312C3830383000D7
:0308300001420082
:100622008B1B8A1C891DAB1BAA1CA91D1201EBFF87
:10063200601712086C7F057E001208867401251D62
:10064200F51DE4351CF51C80DD7F057E0012088651
:100652007F0D12086C7F057E001208867F0A120841
:080662006C7F0A7E000207FB19
:100730008B188A19891A7BFF7A0579A81206227FFD
:100740000A7E001207FBAB18AA19A91A1201EBFFC7
:10075000601712086C7F057E001208867401251A46
:0E076000F51AE43519F51980DD7F0A02086CE0
:10076E007BFF7A0579B71206227BFF7A0579C312D1
:10077E0006227BFF7A0579E41206227BFF7A057941
:10078E00FB1206227FD07E071207FB7BFF7A0679CB
:0D079E00021206227BFF7A06790E02062267
:0C087A0012083412089912076ED2AC224A
:1002CA00E4F508F5090509E50970020508AE08FF15
:1002DA007C007D32120231ED4C701412052DE4FBC4
:1002EA00FA7920784112002612016A8E0F8F10C304
:1002FA00E50F648094805013C3E49510F510E495DB
:10030A000FF50F750A4075112D8006E4F50A75116F
:10031A002BAE0FAF107C037DE812028674222FF8F1
:10032A00E6F50BAE0FAF107C037DE8120286AA0435
:10033A00AB057D647C00AF03AE0212028674222FE5
:10034A00F8E6F50C7D647C00AF03AE02120286AAC1
:10035A0004AB057D0A7C00AF03AE0212028674224A
:10036A002FF8E64480F50D7D0A7C00AF03AE021239
:10037A00028674222DF8E6F50E7B007A00790A7D52
:10038A000412040FAE08AF097C007DC8120231EDD9
:10039A004C60030202CFAE0FAF107C037DE812025D
:1003AA0086EF2430F512AE0FAF107C037DE81202FF
:1003BA0086AA04AB057D647C00AF03AE02120286F6
:1003CA00EF2430F5137D647C00AF03AE021202867F
:1003DA00AA04AB057D0A7C00AF03AE02120286EFC7
:1003EA002430F51475152E7D0A7C00AF03AE021277
:1003FA000286ED2430F516E4F517FB7A007911121E
:05040A0007300202CFE3
:030023000206B121
:0906B100C0E0C0D075D000C0000B
:1006BA0030982DC29874332542F8A699E533B42BA5
:1006CA000405428003754200E542B40A13754200EC
:1006DA00E53CB43104C2A08007E53CB43202D2A0A2
:0706EA00D000D0D0D0E032B7
:10002600EC4D6011E8497017ED33EC3304600DE4D4
:10003600FCFFFEFD22E933E8330470F80201D61214
:1000460001A158046009E4CC248150062850090215
:1000560001E02840030201DDC0E0EB4A7044B980AC
:1000660006D0E0FB0201CCEF4E701CBD8008EBFF12
:10007600EAFEE9FD80EBE98DF0A4FEE5F002010F52
:10008600E9CDF9EAFEEBFFEF89F0A4FCE5F0CE89B5
:10009600F0A42EFFE435F0CD89F0A42DFEE435F072
:1000A6008067EF4E7005BD80D780C3EF8BF0A4ACA0
:1000B600F0EE8BF0A42CFCE435F0F8EF8AF0A42CDB
:1000C600E5F038FCE433CB8DF0A42CFCE5F03BF8EE
:1000D600EE8AF0A42CFCE5F038F8E433CF89F0A4DE
:1000E6002CFCE5F038CF3400CE89F0A42FFFE5F0E4
:1000F6003EFEE433C98DF0A42EFEE5F039CD8AF03C
:10010600A42FFFE5F03EFEE43DFD33D0E0FB5007B3
:100116000BBB000F0201E0EC2CFCEF33FFEE33FECD
:06012600ED33FD0201B8FB
:10012C0075F020800E75F010800575F0087D007E4E
:10013C00007F003392D530D5031202BCEC33401053
:10014C00EF33FFEE33FEED33FDEC33FCD5F0ED2257
:0E015C00E5F0247EA2D513CC92E7CDCEFF2293
:10016A00EDD2E7CD33EC3392D524814006E4FFFE8D
:10017A00FDFC22FCE4CFCECDCC24E0501174FF80EC
:10018A00EDC3CC13CCCD13CDCE13CECF13CF047089
:07019A00F030D5DE0202BCCB
:1001A100E9D2E7C933E833F892D5EDD2E7CD33ECA4
:0701B10033FC5002B2D5221D
:1001B800EC30E7100FBF000C0EBE00080DBD0004A8
:1001C8000BEB6014A2D5EB13FCED92E7FD2274FF54
:1001D800FCFDFEFF22E480F8A2D574FF13FC7D80AD
:0301E800E480EFC1
:030000000204A156
:0C04A100787FE4F6D8FD7581420204E883
:1001EB00BB010689828A83E0225002E722BBFE0212
:0901FB00E32289828A83E4932245
:10020400BB010CE58229F582E5833AF583E02250AF
:1002140006E92582F8E622BBFE06E92582F8E222F9
:0D022400E58229F582E5833AF583E4932213
:10023100BC000BBE0029EF8DF084FFADF022E4CCB1
:10024100F875F008EF2FFFEE33FEEC33FCEE9DEC7A
:10025100984005FCEE9DFE0FD5F0E9E4CEFD22EDC0
:10026100F8F5F0EE8420D21CFEADF075F008EF2F0A
:10027100FFED33FD4007985006D5F0F222C398FDFB
:050281000FD5F0EA2298
:10028600C2D5EC30E709B2D5E4C39DFDE49CFCEE93
:1002960030E715B2D5E4C39FFFE49EFE120231C3D8
:1002A600E49DFDE49CFC800312023130D507C3E4D3
:0602B6009FFFE49EFE2202
:0E02BC00C3E49FFFE49EFEE49DFDE49CFC2253
:1004AD00020891E493A3F8E493A34003F68001F2CC
:1004BD0008DFF48029E493A3F85407240CC8C33350
:1004CD00C4540F4420C8834004F456800146F6DF1F
:1004DD00E4800B0102040810204080900819E47E8E
:1004ED00019360BCA3FF543F30E509541FFEE49314
:1004FD00A360010ECF54C025E060A840B8E493A3DB
:10050D00FAE493A3F8E493A3C8C582C8CAC583CA05
:10051D00F0A3C8C582C8CAC583CADFE9DEE780BEBD
:0108330000C4
:00000001FF
