:10000E0020202020202020202020202020202020E2
:10001E00002020B6E0B9A6C4DCB5E7D7D3C8D5C05A
:10002E00FA00D1F4C0FA32303030C4EA3030D4C2E3
:10003E00303000C5A9C0FA30302D303020D0C7C6C0
:10004E00DA2020002030303A30303A303020303054
:10005E002E30A1E60032303133C4EA3030D4C23013
:10006E0030C8D520200020203030CAB13030B7D66D
:10007E003030C3EB202000C9E8D6C32020D0C7C63D
:10008E00DA30312020202000C4D6D6D3BFAA2020BB
:10009E003030CAB13030B7D600BFAA00B9D800048C
:1000AE00AE530A57485526BD0D26500D954446AA07
:1000BE00B9056A4D09AD4224AEB604AE4A6A4DBECC
:1000CE000A4D520D25465D52BA0B544E0D6A432908
:1000DE006D37095B4B749BC10497540A4B485B25E3
:1000EE00BC06A55006D4454ADAB802B64D095742A9
:1000FE002497B704974A664B3E0D4A510EA54656B5
:10010E00D4BA05AD4E02B644393738092E4B7C961B
:10011E00BF0C95530D4A486DA53B0B554F056A45CF
:10012E004AADB9025D4D092D422C95B60A954A7B12
:10013E004ABD06CA510B5546555ABB04DA4E0A5BE8
:10014E0043352BB8052B4C8A953F0E955206AA487F
:10015E007AD53C0AB54F04B6454A57390A574D056C
:10016E0026423E93350D954975AABE056A51096D15
:10017E004654AEBB04AD4F0A4D434D26B70D254B2D
:10018E008D52BF0B54520B6A47696D3C095B50048C
:10019E009B454A4BB90A4B4DAB25C206A55406D416
:1001AE00496ADA3D0AB6510937465497BB04974F50
:1001BE00064B4436A5370EA54A86B2BF05AC530A88
:1001CE00B6475936BC092E500C96454D4AB80D4AC5
:1001DE004C0DA54125AAB6056A497AADBD025D5200
:1001EE00092D475C95BA0A954E0B4A434B55370A73
:1001FE00D54A955ABF04BA530A5B48652BBC052BEA
:10020E00500A9345474AB906AA4C0AD54124DAB694
:10021E0004B64A69573D0A4E510D26465E933A0D75
:10022E00534D05AA4336B537096D4BB4AEBF04AD79
:10023E00530A4D486D25BC0D254F0D52445DAA380D
:10024E000B5A4C056D4124ADB6049B4A7A4BBE0A3F
:10025E004B510AA5465B52BA06D24E0ADA4200004C
:10026E000000000000000000000000000000000080
:10027E000000000000000000000000000000000070
:10028E000000000000000000000000000000000060
:10029E000000000000000000000000000000000050
:1002AE000000000000000000000000000000000040
:1002BE000000000000000000000000000000000030
:1002CE000000000000000000000000000000000020
:1002DE000000000000000000000000000000000010
:1002EE000000000000000000000000000000000000
:1002FE0000000000001F3B5A7897B5D4F30111019E
:10030E0030014E000303060104060205000305300A
:10031E00313233343536373839414243444546005D
:10032E00303132333435363738394142434445461D
:10033E000080828486888C8A81838587898D8B5004
:06034E0059230101130216
:08135200C18201370801381EB9
:060AC200AD11AC10AF0DF8
:100AC800EF14B40D004003020C0B900AE075F0031C
:100AD800A4C58325F0C58373020B07020B1B020B09
:100AE8002F020B43020B57020B6B020B7F020B9377
:100AF800020BA7020BBB020BCF020BE3020BF7742E
:100B0800AD2DF58274003CF583E49354087002C35C
:100B180022D32274AD2DF58274003CF583E49354FE
:100B2800047002C322D32274AD2DF58274003CF503
:100B380083E49354027002C322D32274AD2DF5824C
:100B480074003CF583E49354017002C322D32274E9
:100B5800AE2DF58274003CF583E49354807002C393
:100B680022D32274AE2DF58274003CF583E49354AD
:100B7800407002C322D32274AE2DF58274003CF576
:100B880083E49354207002C322D32274AE2DF582DD
:100B980074003CF583E49354107002C322D322748A
:100BA800AE2DF58274003CF583E49354087002C3BB
:100BB80022D32274AE2DF58274003CF583E493545D
:100BC800047002C322D32274AE2DF58274003CF562
:100BD80083E49354027002C322D32274AE2DF582AB
:100BE80074003CF583E49354017002C322D3227449
:100BF800AF2DF58274003CF583E49354807002C3F2
:040C080022D322C30E
:010C0C0022C5
:10088C00E509C4540FFBE509540FFAEB75F00AA403
:10089C002AF509E50AC4540FFBE50A540FFAEB7567
:1008AC00F00AA42AF50AE50BC4540FFBE50B540F10
:1008BC00FAEB75F00AA42AF50BE50920030724636B
:1008CC00FFE433800624FFFFE434FFFE7C007D034D
:1008DC001208178E108F1174AF2511F58274003524
:1008EC0010F583E493FE5460FB7805FF0880010348
:1008FC00D8FDFBEE541FFABB010514F50C8005EA7C
:10090C00241EF50CE50AC3940AE50A500B9003016A
:10091C0093250BFFE433801525E024F7F582E434AE
:10092C0002F583740193250BFFE4933400CF24FF6D
:10093C00F50FEF34FFF50EE50AD39402400EE509EE
:10094C0054037008050FE50F7002050EAF0C7E0006
:10095C00C3E50F9FE50E9E4079E50F9FF50FE50E61
:10096C009EF50E750A01750D01120AC29204C2059C
:10097C002004047B1D80027B1E74AD2511F582744E
:10098C00003510F583E49354F0FA7804FF088001E5
:10099C0003D8FDFAEBFF7E00C3E50F9FE50E9E40EA
:1009AC002CE50F9FF50FE50E9EF50E050DE50AB52E
:1009BC000209B205200506050A8002050A120AC2C0
:1009CC0092042004047B1D80CB7B1E80C7E50F02A4
:1009DC000A63C3E50C950FF50CE5097007750963FF
:1009EC00D2038002150974FD2511F51174FF351021
:1009FC00F510750A0CFE74AD2511F58274003EF5E8
:100A0C0083E49354F0FA7804FF08800103D8FDFACC
:100A1C007005750D0C8003750D0DC205120AC2927E
:100A2C00042004047B1D80027B1EE50CD39B402319
:100A3C00E50C9BF50C150D200502150AE50AB5020F
:100A4C0002B205120AC292042004047B1D80DB7BD7
:100A5C001E80D7C3EB950C04F50BA2039200E5099D
:100A6C0075F00A84FB7804FF08800123D8FDFBE5B0
:100A7C000975F00A84AAF0EB4AF530E50A75F00A1C
:100A8C0084FB7804FF08800123D8FDFBE50A75F090
:100A9C000A84AAF0EB4AF52EE50B75F00A84FB7874
:100AAC0004FF08800123D8FDFBE50B75F00A84AA2E
:050ABC00F0EB4AF533E8
:010AC1002212
:100D7F00E512C4540FFFE512540FFEEF75F00AA4ED
:100D8F002EF512E513C4540FFFE513540FFEEF7544
:100D9F00F00AA42EF513E514C4540FFFE514540FF5
:100DAF00FEEF75F00AA42EF51420060674642512C2
:100DBF00F512E5121313543F251275F00784AEF0A8
:100DCF00E5142EFFE513900310932FFEE512540345
:100DDF007008E513C3940350011EEE75F007848568
:020DEF00F028EA
:010DF10022DF
:10125800E4FDFCC3ED9FEC9E5015E4FBFA0BBB00CC
:0F126800010AEB64734A70F50DBD00010C80E4C0
:011277002254
:04102E00A3E493FFA5
:10103200D295E4F536C293EF139294EFC313FFD225
:10104200930536E536B408EDE4F536C293ED139216
:1010520094EDC313FDD2930536E536B408EDC2957F
:05106200C293C29422BC
:04109D00A3E493FF36
:1010A100D295E4FDC293EF139294EFC313FFD29351
:1010B1000DBD08F0E4FDC293EEC313FE309403436B
:1010C1000680D2930DBD08EEC295C293C294AF06BD
:0110D10022FC
:10110100900346E493FF1210A18F2612109D8F2B9E
:1011110012109D8F2D12109D8F3212109D8F311242
:0A112100109D8F2512109D8F2822CB
:100FA400E4FD7F8E12103290033FE493FFAD2612CE
:100FB4001032AD2B12102EAD2D12102EA3E493FF80
:100FC400AD32121032A3E493FFAD31121032A3E418
:100FD40093FFAD25121032A3E493FFAD2812103213
:070FE4007D807F8E021032B8
:1011CF00AE07AC05EE25E0FE5306FE4306C0E4FD78
:1011DF007F8E121032AF06AD041210327D807F8EDB
:0311EF00021032B9
:0E132E00EF25E0FF4307014307C01210A12284
:1012F800AD377F011211CFAD387F021211CFAD3556
:051308007F040211CF7B
:1012E2007F0112132E8F377F0212132E8F387F0445
:0612F20012132E8F3522BD
:100E6300C295C293C2947F0A12132EA9077F0A1256
:100E7300132EA9077F647E00121258E964036032BF
:100E83007D037F0A1211CF7F647E00121258E4FDA6
:100E93007F8E121032EE90033F93FFEE90034D933B
:100EA300FD1210320EBE07ED7D807F8E12103212BE
:020EB30012F833
:010EB500221A
:070F08007B00750C607F0106
:100F0F00EF64017023041207E31207CAFF540FC3E3
:100F1F00940A4008EF54F024101208051207CAC3B0
:100F2F00950C4023E40208051207CA7005E50C1260
:100F3F0008051207CAFF540F7008EF440A24F01275
:080F4F00080574FF1207E322FC
:0A134800D2AF758911D2A9D28C2210
:0D12B2007F197E001212BFD2A77F327E008E
:0B12BF00EF1FAC0670011E4C70F62201
:1012CA00E4FDEE25E0FEEF30E003430601EFC31331
:0712DA00FF0DBD08EDAF069A
:0112E10022EA
:0C133C008F80C2A5C2A61212B2C2A72266
:10115500AE29AF2A7C001208297C007D0A120829D5
:0D116500741D2DF58274033CF583E493FFA7
:0C1172008F80C2A5D2A61212B2C2A72222
:10112B00EF24FE601014601314601624037016ED88
:10113B002480FB8010ED2490FB800AED2488FB803B
:0A114B0004ED2498FBAF0302133CEF
:0911F2007F021211FBAB287F0300
:1011FB00AA0312112BEAC4540F90031D93FF121173
:09120B0072EA540F93FF02117204
:0610D2007BFF7A00790E9D
:1010D8008B088A09890A12112BAB08AA09A90A12D6
:1010E80007CAFF60131211727401250AF50AE43564
:0910F80009F5091212BB80E12286
:10130D00AA0312112BBA01047F0F80027FC01213A2
:02131D003C2270
:0F131F007F3012133C7F0C12133C7F0102133CF2
:101214007BFF7A00790EE4FD7F011210D87F021261
:1012240010D27F031210D27BFF7A00790E7F040262
:0212340010D8D0
:101067007BFF7A00791FE4FD7F011210D87BFF7A9E
:101077000079307F021210D87BFF7A0079417F0315
:101087001210D87BFF7A0079527F041210D8E4FB44
:061097000D7F0102130DA4
:100EB6001212147BFF7A007963E4FD7F011210D8C9
:100EC6007BFF7A0079747F021210D87BFF7A007953
:100ED600857F031210D87BFF7A0079967F04121063
:100EE600D8E5357BFFB401067A0079A780047A003D
:100EF60079AA7D027F041210D87B017D017F010251
:020F0600130DC9
:10117E00D2B17F017E001212BFC2B17F507E00122B
:10118E0012BFD2B17F0A7E001212BFA2B192037FAC
:08119E00147E001212BFD2B151
:0111A6002226
:02129600AD07A2
:10129800E4FBC2B1ED1392B17F057E001212BFD2FA
:0912A800B1EDC313FD0BBB08E915
:0112B100221A
:10127800E4FBC2B1EDC313FDD2B130B10343058025
:0D1288007F057E001212BF0BBB08E7AF050B
:011295002236
:100FEB0012117E7FCC1212967F441212961212BBF4
:100FFB0012117E7FCC1212967FBE121296C2AF12C6
:10100B001278AA07121278D2AFEFFEAD02EDFFE411
:10101B00AC06120710E4FBFA7920783F1206051292
:02102B00074973
:01102D0022A0
:100C0D00E52F6003020CF2121101E5086526700351
:100C1D00020CF2852608C20385250985310A853225
:100C2D000B12088C853039852E24853327AB257D15
:100C3D00037F021211FBAB317D057F021211FBAB5D
:100C4D00327D071211F27D027F0312112BE524C4B0
:100C5D00540F90031D93FF121172E524540F93FF4F
:100C6D001211727F2D121172E527C4540F93FF12CA
:100C7D001172E527540F93FF121172E4FD7F0412D8
:100C8D00112B7F20121172E52DC4540F93FF1211F9
:100C9D0072E52D540F93FF1211727F3A121172E506
:100CAD002BC4540F93FF121172E52B540F93FF12A7
:100CBD0011727F3A121172E526C4540F93FF12116F
:100CCD0072E526540F93FF1211727F201211727D5F
:100CDD00641211557D0A1211557F2E121172AE2913
:050CED00AF2A12115EA8
:010CF20022DF
:100F570075341443B078E5B054786478603B7F010A
:100F67007E00121258E5B054786478602FE521B4FA
:100F7700012AE4F521E5B0547824C8601824E0601C
:100F87001024F0600824F8701375340422753403B4
:0C0F9700227534022275340122752101FC
:010FA300222B
:10035400E534B4040B12131F121067D202E4F52F14
:10036400E534B40116052FD202E52FB40103120EB1
:10037400B6E52FD3940A4003752F01E52F700302CD
:10038400060464017026E534B4020E7B007A007919
:1003940025750C997F01120F0FE534B4030E7B0011
:1003A4007A007925750C99E4FF120F0FE52F64028A
:1003B4007026E534B4020E7B007A007931750C1393
:1003C4007F01120F0FE534B4030E7B007A007931FC
:1003D400750C13E4FF120F0FE52F64037026E53448
:1003E400B4020E7B007A007932750C327F01120F51
:1003F4000FE534B4030E7B007A007932750C32E4D5
:10040400FF120F0FE52F64047026E534B4020E7B4F
:10041400007A00792D750C247F01120F0FE534B496
:10042400030E7B007A00792D750C24E4FF120F0F64
:10043400E52F6405701FE534B402077A00792B12A6
:100444000F08E534B4030E7B007A00792B750C6039
:10045400E4FF120F0FE52F6406701FE534B40207A2
:100464007A007926120F08E534B4030E7B007A0073
:100474007926750C60E4FF120F0FE52F64077026D0
:10048400E534B4020E7B007A007928750C087F01EC
:10049400120F0FE534B4030E7B007A007928750C33
:1004A40008E4FF120F0FE52F64087029E534B40245
:1004B4000E7B007A007938750C247F01120F0FE54A
:1004C40034B4030E7B007A007938750C24E4FF12EF
:1004D4000F0F1212F8E52F64097024E534B40209F1
:1004E4007B007A007937120F0AE534B4030E7B00DF
:1004F4007A007937750C60E4FF120F0F1212F8E5D9
:100504002F640A7032E53464026005E534B40302F2
:100514000535E535C394024003E4F535E5357BFF45
:10052400B401067A0079A780047A0079AA7D027F53
:10053400041210D81212F8AB257D017F011211FBB1
:10054400AB317D037F011211FBAB327D057F0112BC
:1005540011FBAB2D7D017F021211FBAB2B7D037FC1
:10056400021211FBAB267D051211F2AB381D7F047C
:100574001211FBAB377D067F041211FBE52F14B477
:100584000A00507990059675F003A4C58325F0C53B
:1005940083730205B40205BA0205C00205C8020548
:1005A400D00205D80205E00205E80205F00205F8CC
:1005B4007B017D01800A7B017D0380047B017D0535
:1005C4007F0180367B017D017F02802E7B017D03CC
:1005D4007F0280267B017D057F02801E7B017D05D5
:1005E4007F0380167B017D047F04800E7B017D06E2
:1005F4007F0480067B017D027F0412130D120FA479
:0106040022D3
:10123600E52F701DE535B40118E52BB5370CE52D06
:10124600B53807E5267003752C01E52CB40102B20A
:02125600B722BD
:100DF200C2B77F967E0012125875B0FF75A0FF75BC
:100E020090FF7580FF120E631212E212131F12106E
:100E120067121348120FEB8E298F2A7F8A7E0212E5
:100E22001258120FEB8E298F2A120F57E534C394F2
:100E32000A500EE52C70051203548005D2B7E4F572
:100E42002C30020CC202120C0D120FEB8E298F2ACB
:100E5200300105121236C2017F017E001212588043
:010E6200C8C7
:03000B000211A738
:0611A700C0E0C0F0C0D062
:1011AD00758C3C758AB00522E52220E002D201E55E
:0B11BD002275F01484E5F07002D202ED
:0711C800D0D0D0F0D0E032DE
:10060500EC4D6011E8497017ED33EC3304600DE4EF
:10061500FCFFFEFD22E933E8330470F80207B5124A
:10062500078058046009E4CC24815006285009024B
:1006350007BF2840030207BCC0E0EB4A7044B980FD
:1006450006D0E0FB0207ABEF4E701CBD8008EBFF48
:10065500EAFEE9FD80EBE98DF0A4FEE5F00206EE89
:10066500E9CDF9EAFEEBFFEF89F0A4FCE5F0CE89D0
:10067500F0A42EFFE435F0CD89F0A42DFEE435F08D
:100685008067EF4E7005BD80D780C3EF8BF0A4ACBB
:10069500F0EE8BF0A42CFCE435F0F8EF8AF0A42CF6
:1006A500E5F038FCE433CB8DF0A42CFCE5F03BF809
:1006B500EE8AF0A42CFCE5F038F8E433CF89F0A4F9
:1006C5002CFCE5F038CF3400CE89F0A42FFFE5F0FF
:1006D5003EFEE433C98DF0A42EFEE5F039CD8AF057
:1006E500A42FFFE5F03EFEE43DFD33D0E0FB5007CF
:1006F5000BBB000F0207BFEC2CFCEF33FFEE33FE04
:06070500ED33FD02079731
:10070B0075F020800E75F010800575F0087D007E69
:10071B00007F003392D530D50312087EEC334010A6
:10072B00EF33FFEE33FEED33FDEC33FCD5F0ED2272
:0E073B00E5F0247EA2D513CC92E7CDCEFF22AE
:10074900EDD2E7CD33EC3392D524814006E4FFFEA8
:10075900FDFC22FCE4CFCECDCC24E0501174FF8007
:10076900EDC3CC13CCCD13CDCE13CECF13CF0470A4
:07077900F030D5DE02087E1E
:10078000E9D2E7C933E833F892D5EDD2E7CD33ECBF
:0707900033FC5002B2D52238
:10079700EC30E7100FBF000C0EBE00080DBD0004C3
:1007A7000BEB6014A2D5EB13FCED92E7FD2274FF6F
:1007B700FCFDFEFF22E480F8A2D574FF13FC7D80C8
:0307C700E480EFDC
:03000000020CF3FC
:0C0CF300787FE4F6D8FD758139020D3AD7
:1007CA00BB010689828A83E0225002E722BBFE022D
:0907DA00E32289828A83E4932260
:1007E300BB010989828A83F8E028F022500327F7A6
:1007F30022BBFE05F8E328F3228A838982F8E49377
:020803002822A9
:10080500BB010689828A83F0225002F722BBFE01D2
:02081500F322CC
:10081700EF8DF0A4A8F0CF8CF0A428CE8DF0A42EF5
:02082700FE22AF
:10082900BC000BBE0029EF8DF084FFADF022E4CCB3
:10083900F875F008EF2FFFEE33FEEC33FCEE9DEC7C
:10084900984005FCEE9DFE0FD5F0E9E4CEFD22EDC2
:10085900F8F5F0EE8420D21CFEADF075F008EF2F0C
:10086900FFED33FD4007985006D5F0F222C398FDFD
:050879000FD5F0EA229A
:0E087E00C3E49FFFE49EFEE49DFDE49CFC228B
:100CFF00020DF2E493A3F8E493A34003F68001F20C
:100D0F0008DFF48029E493A3F85407240CC8C333F5
:100D1F00C4540F4420C8834004F456800146F6DFC4
:100D2F00E4800B0102040810204080901352E47EEF
:100D3F00019360BCA3FF543F30E509541FFEE493B9
:100D4F00A360010ECF54C025E060A840B8E493A380
:100D5F00FAE493A3F8E493A3C8C582C8CAC583CAAB
:100D6F00F0A3C8C582C8CAC583CADFE9DEE780BE63
:01135A000092
:00000001FF
