:0300000002156A7C
:0C156A00787FE4F6D8FD7581590215B1B8
:10000E000000002090885453A222120A060000001D
:10001E0000818989444442252911110905030100F3
:10002E0000040404FC04141410907F1010F000005F
:10003E00040C0404034222110C232060201F000034
:10004E0010B897929094B810007F484844742000DE
:10005E0000FF0A0A4A8A7F00003F44444272200091
:10006E000000F848484848FF48484848F800000053
:10007E0000000F040404043F444444444F40700005
:10008E0000000202020202E2120A060200800000D2
:10009E00010101010141817F010101010101010005
:1000AE00000000FE42424242424242FE0000000078
:1000BE000000003F101010101010103F0000000044
:1000CE000000FE0222222222FA222222E202020054
:1000DE0040300F0040201806010020603F00000055
:1000EE0000E010080810E000000F102020100F0094
:1000FE00001010F8000000000020203F202000001B
:10010E000070080808887000003028242221300072
:10011E0000300888884830000018202020110E007A
:10012E000000C02010F8000000070424243F240023
:10013E0000F80888880808000019212020110E00F8
:10014E0000E0108888180000000F112020110E000A
:10015E0000380808C83808000000003F0000000002
:10016E000070880808887000001C222121221C00C3
:10017E0000E010080810E0000000312222110F00EC
:10018E0000FE02225A8600FE4242424242FE000019
:10019E0000FF04080403003F10101010103F000071
:1001AE000000FE0222222222FA222222E202020073
:1001BE0040300F0040201806010020603F00000074
:1001CE000020180888E81F6A880888C8A81C08003C
:1001DE0008040241FF40201001020D18702020007B
:1001EE000000FE0222222222FA222222E202020033
:1001FE0040300F0040201806010020603F00000034
:10020E0000FC444444FC1090101010FF101010001D
:10021E0000070404040700000340807F0000000074
:10022E0000F8010600F092929292F20202FE000095
:10023E0000FF00000007040404040740807F000054
:10024E000000000000000000000101010101010199
:10025E00000000C0C00000000000003030000000B0
:10026E000000000000000000003030000000000020
:10027E00000205E21804020202020202041E00003D
:10028E000000000718204040404040402018000069
:10029E004041CE04008040BE828282BEC0404000FB
:1002AE0000007F20908040432C10102C43C0400053
:1002BE0000202FA9A9AFE9B9A9AFA9A92F20000045
:1002CE00808080FFAAAAAAAAAAAAAAFF808080007C
:1002DE004020100CE3222222FE22222222020000C3
:1002EE000404040407040404FF04040404040400C6
:1002FE000000000000FF1111111111FF000000009D
:10030E00004020100C0301010121413F00000000BC
:10031E00000000FE42424242424242FE0000000005
:10032E000000003F101010101010103F00000000D1
:10033E0000FC444444FC1090101010FF10101000EC
:10034E0000070404040700000340807F0000000043
:10035E0080402098878280808384983060C04000DF
:10036E0000804020100F000020403F0000000000E1
:10037E001212D2FE9111C0381000FF00081060005A
:10038E00040300FF00838040402023100804030074
:10039E00000000BE2A2A2AEA2A2A2A2A3E00000043
:1003AE00004846414949497F494949494941400028
:1003BE000004FF545454FF0400FE222222FE0000CB
:1003CE0042221B02020A336218070222423F000039
:1003DE000000F912909296FA9292921202FE00008A
:1003EE000000FF001F00007F00081F40807F0000FC
:1003FE0040302CEB282800F80808FF0808F8000009
:10040E00010101FF412100010101FF010101000075
:10041E004042424242FE42424242FE42424242007A
:10042E00004020100C03000000007F0000000000C0
:10043E0000101010111E14F01018171218100000D2
:10044E00018141211109050305093161C1410100F5
:10045E0004AE530A57485526BD0D26500D954446F9
:10046E00AAB9056A4D09AD4224AEB604AE4A6A4D2C
:10047E00BE0A4D520D25465D52BA0B544E0D6A43BF
:10048E00296D37095B4B749BC10497540A4B485B2B
:10049E0025BC06A55006D4454ADAB802B64D095712
:1004AE00422497B704974A664B3E0D4A510EA54615
:1004BE0056D4BA05AD4E02B644393738092E4B7CA8
:1004CE0096BF0C95530D4A486DA53B0B554F056ACB
:1004DE00454AADB9025D4D092D422C95B60A954A95
:1004EE007B4ABD06CA510B5546555ABB04DA4E0A15
:1004FE005B43352BB8052B4C8A953F0E955206AAB9
:10050E00487AD53C0AB54F04B6454A57390A574D75
:10051E000526423E93350D954975AABE056A5109C9
:10052E006D4654AEBB04AD4F0A4D434D26B70D2557
:10053E004B8D52BF0B54520B6A47696D3C095B5091
:10054E00049B454A4BB90A4B4DAB25C206A5540632
:10055E00D4496ADA3D0AB6510937465497BB049717
:10056E004F064B4436A5370EA54A86B2BF05AC538F
:10057E000AB6475936BC092E500C96454D4AB80D51
:10058E004A4C0DA54125AAB6056A497AADBD025D54
:10059E0052092D475C95BA0A954E0B4A434B553777
:1005AE000AD54A955ABF04BA530A5B48652BBC0557
:1005BE002B500A9345474AB906AA4C0AD54124DA6C
:1005CE00B604B64A69573D0A4E510D26465E933A19
:1005DE000D534D05AA4336B537096D4BB4AEBF0466
:1005EE00AD530A4D486D25BC0D254F0D52445DAAE5
:1005FE00380B5A4C056D4124ADB6049B4A7A4BBE5E
:10060E000A4B510AA5465B52BA06D24E0ADA42008E
:10061E0000000000000000000000000000000000CC
:10062E0000000000000000000000000000000000BC
:10063E0000000000000000000000000000000000AC
:10064E00000000000000000000000000000000009C
:10065E00000000000000000000000000000000008C
:10066E00000000000000000000000000000000007C
:10067E00000000000000000000000000000000006C
:10068E00000000000000000000000000000000005C
:10069E00000000000000000000000000000000004C
:1006AE000000000000001F3B5A7897B5D4F30111EB
:1006BE000130014E00030306010406020500030586
:1006CE0080828486888C8A81838587898D8B505918
:0506DE002301011302DD
:081CFC00C183014108014212FD
:060E5000AD11AC10AF0D66
:100E5600EF14B40D004003020F98900E6E75F00368
:100E6600A4C58325F0C58373020E95020EA9020E52
:100E7600BD020ED1020EE5020EF9020F0D020F2180
:100E8600020F35020F49020F5D020F71020F8574C2
:100E96005E2DF58274043CF583E49354087002C316
:100EA60022D322745E2DF58274043CF583E49354B8
:100EB600047002C322D322745E2DF58274043CF5BD
:100EC60083E49354027002C322D322745E2DF5820A
:100ED60074043CF583E49354017002C322D3227454
:100EE6005F2DF58274043CF583E49354807002C34D
:100EF60022D322745F2DF58274043CF583E4935467
:100F0600407002C322D322745F2DF58274043CF52F
:100F160083E49354207002C322D322745F2DF5829A
:100F260074043CF583E49354107002C322D32274F4
:100F36005F2DF58274043CF583E49354087002C374
:100F460022D322745F2DF58274043CF583E4935416
:100F5600047002C322D322745F2DF58274043CF51B
:100F660083E49354027002C322D322745F2DF58268
:100F760074043CF583E49354017002C322D32274B3
:100F8600602DF58274043CF583E49354807002C3AB
:020F960022D364
:010F98002236
:100C1A00E509C4540FFBE509540FFAEB75F00AA471
:100C2A002AF509E50AC4540FFBE50A540FFAEB75D5
:100C3A00F00AA42AF50AE50BC4540FFBE50B540F7E
:100C4A00FAEB75F00AA42AF50BE5092004072463D8
:100C5A00FFE433800624FFFFE434FFFE7C007D03BB
:100C6A00120BA58E108F1174602511F5827404354C
:100C7A0010F583E493FE5460FB7805FF08800103B6
:100C8A00D8FDFBEE541FFABB010514F50C8005EAEA
:100C9A00241EF50CE50AC3940AE50A500B9006B225
:100CAA0093250BFFE433801525E024A8F582E4346C
:100CBA0006F583740193250BFFE4933400CF24FFD8
:100CCA00F50FEF34FFF50EE50AD39402400EE5095D
:100CDA0054037008050FE50F7002050EAF0C7E0075
:100CEA00C3E50F9FE50E9E4079E50F9FF50FE50ED0
:100CFA009EF50E750A01750D01120E509205C20677
:100D0A002005047B1D80027B1E745E2511F582740A
:100D1A00043510F583E49354F0FA7804FF0880014F
:100D2A0003D8FDFAEBFF7E00C3E50F9FE50E9E4058
:100D3A002CE50F9FF50FE50E9EF50E050DE50AB59C
:100D4A000209B206200606050A8002050A120E509A
:100D5A0092052005047B1D80CB7B1E80C7E50F0210
:100D6A000DF1C3E50C950FF50CE5097007750963DC
:100D7A00D2048002150974FD2511F51174FF35108E
:100D8A00F510750A0CFE745E2511F58274043EF5A1
:100D9A0083E49354F0FA7804FF08800103D8FDFA3B
:100DAA007005750D0C8003750D0DC206120E50925A
:100DBA00052005047B1D80027B1EE50CD39B402386
:100DCA00E50C9BF50C150D200602150AE50AB5027D
:100DDA0002B206120E5092052005047B1D80DB7BB1
:100DEA001E80D7C3EB950C04F50BA2049200E5090B
:100DFA0075F00A84FB7804FF08800123D8FDFBE51F
:100E0A000975F00A84AAF0EB4AF531E50A75F00A89
:100E1A0084FB7804FF08800123D8FDFBE50A75F0FE
:100E2A000A84AAF0EB4AF52FE50B75F00A84FB78E1
:100E3A0004FF08800123D8FDFBE50B75F00A84AA9C
:050E4A00F0EB4AF53E4B
:010E4F002280
:1015F600E557C4540FFFE557540FFEEF75F00AA4E4
:101606002EF557E558C4540FFFE558540FFEEF75F5
:10161600F00AA42EF558E559C4540FFFE559540FA6
:10162600FEEF75F00AA42EF55920070674642557B7
:10163600F557E5571313543F255775F00784AEF059
:10164600E5592EFFE5589006C1932FFEE557540342
:101656007008E558C3940350011EEE75F0078485A3
:02166600F02969
:01166800225F
:0B1CE700EF1FAC0670011E4C70F622CF
:0D1AAB003EF583E493FF121C8E7F327E0017
:101AB800E4FDFCC3ED9FEC9E5015E4FBFA0BBB0064
:0F1AC800010AEB64734A70F50DBD00010C80E458
:011AD70022EC
:0419D700A3E493FFF3
:1019DB00D292E4F540C291EF139290EFC313FFD272
:1019EB00910540E540B408EDE4F540C291ED13924A
:1019FB0090EDC313FDD2910540E540B408EDC292C2
:051A0B00C291C290220F
:041A1000A3E493FFB9
:101A1400D292E4FDC291EF139290EFC313FFD291DF
:101A24000DBD08F0E4FDC291EEC313FE30900343F4
:101A34000680D2910DBD08EEC292C291C290AF064B
:011A4400227F
:101B03009006D5E493FF121A148F27121A108F2C04
:101B1300121A108F2E121A108F3D121A108F3212B2
:0A1B23001A108F26121A108F2922C3
:10184900E4FD7F8E1219DB9006CEE493FFAD2712DB
:1018590019DBAD2C1219D7AD2E1219D7A3E493FFBA
:10186900AD3D1219DBA3E493FFAD321219DBA3E4FA
:1018790093FFAD261219DBA3E493FFAD291219DBFF
:071889007D807F8E0219DB58
:101BC800AE07AC05EE25E0FE5306FE4306C0E4FD75
:101BD8007F8E1219DBAF06AD041219DB7D807F8E74
:031BE8000219DB04
:0E1CD900EF25E0FF4307014307C0121A142253
:101CB100AD417F01121BC8AD427F02121BC8AD248A
:051CC1007F04021BC8B6
:101C9B007F01121CD98F417F02121CD98F427F0406
:061CAB00121CD98F242257
:1016BE00C292C291C2907F0A121CD9A9077F0A1248
:1016CE001CD9A9077F647E00121AB8E96403603240
:1016DE007D037F0A121BC87F647E00121AB8E4FDD8
:1016EE007F8E1219DBEE9006CE93FFEE9006DC9302
:1016FE00FD1219DB0EBE07ED7D807F8E1219DB12F7
:02170E001CB10C
:0117100022B6
:07000300C292C291C29022DB
:071711007B00750C607F01F5
:10171800EF6401702304120B71120B58FF540FC3AE
:10172800940A4008EF54F02410120B93120B58C37C
:10173800950C4023E4020B93120B587005E50C122C
:101748000B93120B58FF540F7008EF440A24F01241
:081758000B9374FF120B7122C8
:101BA400BF01117401120B71120B58C3951D401320
:101BB400E4020B93120B587005E51D120B9374FF8E
:041BC400120B71226D
:101A7A00C2A18A807F027E00121A8BD2A27F027EC6
:011A8A00005B
:101A8B00E4FDFCC3ED9FEC9E50070DBD00010C80E7
:0F1A9B00F2E4FFFE0FBF00010EEF640A4E70F57C
:011AAA002219
:101C6A00C2A0D2A1E4FBD2A27F02FE121A8BC2A2A8
:091C7A00E47003D38001C350EBB8
:011C8300223E
:061CC600FF121CCC7FC0E0
:0D1CCC00AA07121C6AC2A0121A7AC2A22234
:101B7E007F647E00121A8BD2A3D2A47F647E0012E1
:101B8E001A8B7F3E121CCC7FB8121CC77F40121CD2
:061B9E00CC7F3F021CCCCD
:0A1C8400AB0BAA0CA90D120B58FFC0
:0D1C8E00AA07121C6AD2A0121A7AC2A22262
:061398007D04E4FB7F026E
:04139E008F088B0A1F
:1013A200ED24B8F511E4F50FE50FC39508400302EB
:1013B2001440E50F75F010A47C00250AFFEC35F00F
:1013C200FEC3EF9440EE648094805010D2A3C2A476
:1013D200E50A2440FFE50FC454F08010C2A3D2A452
:1013E200E50F24FCC454F0FFE50A24402FF510AFAA
:1013F20011121CCCAF10121CCCE4F50E121C84741A
:1014020001250DF50DE4350CF50C050EE50EC39422
:101412001040E9E51104FF121CCCAF10121CCC7570
:101422000E10121C847401250DF50DE4350CF50C1B
:0E143200050EE50EC3942040E9050F0213AA33
:011440002289
:09107800E4F50E7B207D067F01EA
:041081008F088B0A3F
:10108500ED24B8F512E4F510E510C3950840030208
:10109500114BE51075F010A47C00250AFFEC35F026
:1010A500FEC3EF9440EE648094805010D2A3C2A496
:1010B500E50A2440FFE510C454F08010C2A3D2A471
:1010C500E51024FCC454F0FFE50A24402FF511AFC8
:1010D50012121CCCAF11121CCCE4F50FE50EAB0BB4
:1010E500AA0CA90D7005120B588004120B58F4FFB9
:1010F500121C8E7401250DF50DE4350CF50C050F4C
:10110500E50FC3941040D5E51204FF121CCCAF11B6
:10111500121CCC750F10E50EAB0BAA0CA90D7005B2
:10112500120B588004120B58F4FF121C8E74012503
:101135000DF50DE4350CF50C050FE50FC3942040B6
:06114500D5051002108D1B
:01114B002281
:04114C007D067F019C
:041150008F0E8B1063
:10115400ED24B8F518E4F516E516C3950E40030220
:10116400121CE51675F008A47C002510FFEC35F080
:10117400FEC3EF9440EE648094805011D2A3C2A4C5
:10118400E5102440FFE51675F008A48011C2A3D22F
:10119400A4E51624F875F008A4FFE51024402FF503
:1011A40017AF18121CCCAF17121CCCE4F515E514BC
:1011B400AB11AA12A9137005120B588004120B5814
:1011C400F4FF121C8E74012513F513E43512F51285
:1011D4000515E515C3940840D5E51804FF121CCC89
:1011E400AF17121CCC751508E514AB11AA12A9137C
:1011F4007005120B588004120B58F4FF121C8E74E5
:10120400012513F513E43512F5120515E515C394FC
:081214001040D5051602115C23
:01121C0022AF
:101760008F098D0A8B0BE50BC4540F75F010A42460
:10177000EEF9740035F07511FFF5128913850C141C
:10178000AB0AAD097F01121150E50B540F75F01033
:10179000A424EEF9740035F07511FFF5128913E5F4
:0E17A0000A2408FB850C14AD097F01021150CC
:1012E3008F098D0A8A0B8B0CAE0BAF0C7C007D64CF
:1012F300120BB77C007D0A120BB7EDC4F8540FC86C
:1013030068FFECC454F048FE74EE2FF974003E7588
:1013130011FFF5128913850D14AB0AAD097F011274
:101323001150AE0BAF0C7C007D0A120BB77C007D15
:101333000A120BB7EDC4F8540FC868FFECC454F09D
:1013430048FE74EE2FF974003E7511FFF5128913F0
:10135300E50A2408FB850D14AD097F01121150E540
:101363000A2418FBAE0BAF0C7C007D0A120BB7ED01
:10137300C4F8540FC868FFECC454F048FE74EE2F51
:10138300F974003E7511FFF5128913850D14AD092B
:051393007F0102115072
:1017AE008F538D548B55E555C4540F75F010A424EA
:1017BE00EEF9740035F07511FFF512891385561484
:1017CE00AB54AD537F01121150E555540F75F01007
:1017DE00A424EEF9740035F07511FFF5128913E5A6
:0E17EE00542408FB855614AD537F01021150A0
:101A4500C2A3C2A47FB8121CCC7F40121CCCE4F503
:101A550008E50824B8FF121CCCE4F9E92440FF127C
:101A65001CCCE4FF121C8E09B940F00508E508C33B
:041A7500940840DDB4
:011A7900224A
:0818D7008F448D458A468B47C2
:1018DF00E4F9F548E54424B829FF121CCCE545246A
:1018EF0040FF121CCCE4F548E975F080A47C00257C
:1018FF0048FFEC35F0FEE5472FF582E546121AABAF
:0D190F000548E548C3941040DF09B902C740
:01191C0022A8
:081963008F498D4A8A4B8B4C21
:10196B00E4F9F54DE54924B829FF121CCCE54A24CE
:10197B0040FF121CCCE4F54D854C82854B83E493E0
:10198B00FF121C8E054DE54DC3941040EB09B902B7
:01199B00D378
:01199C002228
:101BEB00D2A3C2A4E4F9E924B8FF121CCCE4F51E7D
:101BFB00E4FF121C8E051EE51EC3944040F209B98A
:021C0B0008E4EB
:011C0D0022B4
:08191D008F4E8D4F8A508B5153
:10192500E4F9F552E54E24B829FF121CCCE54F2405
:1019350040FF121CCC755240E975F080A47C00254F
:1019450052FFEC35F0FEE5512FF582E550121AAB4A
:0D1955000552E552C3948040DF09B902C776
:011962002262
:10199D00D2A3D2A47F3F121CC7E4F508E50824B8F2
:1019AD00121CC6E4F9E4FF121C8E09B940F7E508D4
:1019BD0024B9121CC6E4F9E4FF121C8E09B940F7D4
:0919CD000508E508C3940840D3A5
:0119D60022EE
:10121D00E4F50CAB2E7D087F061217607511FF7576
:10122D00120275135EE4F5147B1812114CE4F50CE3
:10123D00AB2C7D207F061217607511FF751202759C
:10124D00135EE4F5147B3012114CE4F50CAB277DE5
:10125D00387F06121760E4F50CAB267D307F021245
:10126D001760E4F50CAB327D507F02121760E4F588
:10127D000CAB3D7D707F02121760E4F50CAB257D44
:10128D00207F041217607511FF75120275134EE45D
:10129D00F5147B307D047F01121150E4F50CAB2861
:1012AD007D387F04121760E4F50CAB297D707F0447
:1012BD00121760E4F50DAB2BAA2A7D507F06121292
:1012CD00E37511FF75120275136EE4F5147B607DE5
:0612DD00067F0102115022
:10144100D2A3C2A4750BFF750C00750D0E7B10E4C1
:10145100FD7F0712139E750BFF750C01750D8E7DB7
:101461000212139A750BFF750C01750DCE121398AC
:10147100750B00750C00750D00E4FB7D067F0212F3
:10148100139EE4F50C7B207D207F02121760750B03
:10149100FF750C02750DDE7B407D027F0112139EEC
:1014A100750BFF750C02750DFE7B607D027F0112CD
:1014B100139E750BFF750C03750D9E7B507D047F8C
:1014C1000212139E12121D750BFF750C02750D7E13
:0914D1007B707D067F0102139E71
:101B2D00D2B27F017E00121CE7C2B27F507E00123E
:101B3D001CE7D2B27F0A7E00121CE7A2B292047F8C
:081B4D00147E00121CE7D2B265
:011B5500226D
:021C4E00AD07E0
:101C5000E4FBC2B2ED1392B27F057E00121CE7D204
:091C6000B2EDC313FD0BBB08E952
:011C69002258
:101C3000E4FBC2B2EDC313FDD2B230B20343058060
:0D1C40007F057E00121CE70BBB08E7AF0517
:011C4D002274
:10189000121B2D7FCC121C4E7F44121C4E7F327EB9
:1018A00000121CE7121B2D7FCC121C4E7FBE121C97
:1018B0004EC2AF121C30AA07121C30D2AFEFFEADE1
:1018C00002EDFFE4AC06120A9EE4FBFA7920783FB1
:0618D000120993120AD771
:0118D60022EF
:1014DA00E4F50C7B20FDFF121760E4F50CAB2E7DC2
:1014EA00107F02121760E4F50CAB2C7D307F0212DC
:1014FA001760E4F50CAB277D507F02121760E4F504
:10150A000CAB267D10FF121760E4F50CAB327D3070
:10151A00FF121760E4F50CAB3D7D50FF121760E433
:10152A00F50CAB297D507F04121760E4F50CAB4231
:10153A007D407F06121760E4F50CAB417D607F06A3
:10154A00121760E524B4010B750BFF750C04750DB9
:10155A001E8009750BFF750C04750D3E121078225A
:100F9900750BFF750C02750DDE7B20E4FD7F0112D8
:100FA900139E750BFF750C02750DFE7B40E4FD7FEA
:100FB9000112139E750BFF750C03750D1E7B60E402
:100FC900FD7F0112139E750BFF750C03750D3E7B9A
:100FD900207D027F0112139E750BFF750C03750DA1
:100FE9005E7B407D027F0112139E750BFF750C031A
:100FF900750D7E7B607D027F0112139E750BFF7557
:101009000C03750D9E7B307D047F0212139E750BB8
:10101900FF750C03750DDEE4FB7D067F0212139E3E
:10102900750BFF750C03750D3E7B507D067F011214
:10103900139E750BFF750C03750D5E7B707D067F26
:101049000112139E750BFF750C02750D9E121398F4
:10105900E524B4010B750BFF750C04750D1E800991
:0F106900750BFF750C04750D3E1210780214DA2A
:101AD800E5307026121B03E5086527601D85270879
:101AE800C20485260985320A853D0B120C1A8531F8
:0A1AF80043852F25853E2812121D9C
:011B020022C0
:1017FC00753F1443B078E5B054786478603B7F0152
:10180C007E00121AB8E5B054786478602FE521B4E4
:10181C00012AE4F521E5B0547824C8601824E0606E
:10182C001024F0600824F87013753F0422753F03F0
:0C183C0022753F0222753F012275210138
:01184800227D
:1006E300E53FB4040B12199D121441D203E4F53013
:1006F300E53FB401190530D203E530B40106121900
:100703009D120F99E530D3940A4003753001E5300B
:10071300700302099264017026E53FB4020E7B0068
:100723007A007926750C997F01121718E53FB403F7
:100733000E7B007A007926750C99E4FF121718E5F1
:100743003064027026E53FB4020E7B007A007932F2
:10075300750C137F01121718E53FB4030E7B007A63
:10076300007932750C13E4FF121718E53064037037
:1007730026E53FB4020E7B007A00793D750C327F8B
:1007830001121718E53FB4030E7B007A00793D751B
:100793000C32E4FF121718E53064047026E53FB409
:1007A300040E7B007A00792E750C247F0112171832
:1007B300E53FB4030E7B007A00792E750C24E4FF29
:1007C300121718E5306405701FE53FB402077A007D
:1007D300792C121711E53FB4030E7B007A00792CB4
:1007E300750C60E4FF121718E5306406701FE53FCF
:1007F300B402077A007927121711E53FB4030E7B81
:10080300007A007927750C60E4FF121718E530644D
:10081300077026E53FB4020E7B007A007929750C38
:10082300087F01121718E53FB4030E7B007A0079A5
:1008330029750C08E4FF121718E53064087029E5E0
:100843003FB4020E7B007A007942750C247F0112BB
:100853001718E53FB4030E7B007A007942750C2428
:10086300E4FF121718121CB1E53064097024E53F48
:10087300B402097B007A007941121713E53FB403F0
:100883000E7B007A007941750C60E4FF1217181291
:100893001CB1E530640A7039E53F64026005E53F49
:1008A300B403020524E524C394024003E4F524E5DC
:1008B30024B4010B750BFF750C04750D1E800975AF
:1008C3000BFF750C04750D3E750E0112107B121C87
:1008D300B11214DAE53014B40A00400302098F9010
:1008E30008F075F003A4C58325F0C5837302090ED0
:1008F30002091702092002092B02093602094102E3
:10090300094C020957020962020970750C01AB26F2
:100913007D108010750C01AB327D308007750C01A2
:10092300AB3D7D50E4FF8040750C01AB2E7D107F05
:10093300028035750C01AB2C7D307F02802A750C4B
:1009430001AB277D507F02801F750C01AB297D50C1
:100953007F048014750C01AB427D407F06800975CE
:100963000C01AB417D607F06121760801FE524B444
:10097300010B750BFF750C04750D1E8009750BFFBC
:10098300750C04750D3E750E0112107B1218492269
:101C0E00E530701DE524B40118E52CB5410CE52E28
:101C1E00B54207E5277003752D01E52DB40102B21B
:021C2E00B722DB
:0A1CF200D2AF758911D2A9D28C225D
:10166900C2B77F967E00121AB875B0FF75A0FF75D4
:1016790090FF7580FF1216BE121B7E121A45121CAE
:10168900F21214411217FCE53FC3940A500EE52DDE
:1016990070051206E38005D2B7E4F52D3002051274
:1016A9001C0EC2023003DDC2031218908E2A8F2B42
:0516B900121AD880CFD9
:03000B00021B567F
:061B5600C0E0C0F0C0D0A9
:101B5C00758C3C758AB00522E52220E002D202E5A4
:0B1B6C002275F01484E5F07002D20333
:071B7700D0D0D0F0D0E03225
:10099300EC4D6011E8497017ED33EC3304600DE45E
:1009A300FCFFFEFD22E933E8330470F8020B431227
:1009B3000B0E58046009E4CC248150062850090228
:1009C3000B4D284003020B4AC0E0EB4A7044B98048
:1009D30006D0E0FB020B39EF4E701CBD8008EBFF25
:1009E300EAFEE9FD80EBE98DF0A4FEE5F0020A7C66
:1009F300E9CDF9EAFEEBFFEF89F0A4FCE5F0CE893F
:100A0300F0A42EFFE435F0CD89F0A42DFEE435F0FB
:100A13008067EF4E7005BD80D780C3EF8BF0A4AC29
:100A2300F0EE8BF0A42CFCE435F0F8EF8AF0A42C64
:100A3300E5F038FCE433CB8DF0A42CFCE5F03BF877
:100A4300EE8AF0A42CFCE5F038F8E433CF89F0A467
:100A53002CFCE5F038CF3400CE89F0A42FFFE5F06D
:100A63003EFEE433C98DF0A42EFEE5F039CD8AF0C5
:100A7300A42FFFE5F03EFEE43DFD33D0E0FB50073D
:100A83000BBB000F020B4DEC2CFCEF33FFEE33FEE0
:060A9300ED33FD020B250E
:100A990075F020800E75F010800575F0087D007ED8
:100AA900007F003392D530D503120C0CEC33401083
:100AB900EF33FFEE33FEED33FDEC33FCD5F0ED22E1
:0E0AC900E5F0247EA2D513CC92E7CDCEFF221D
:100AD700EDD2E7CD33EC3392D524814006E4FFFE17
:100AE700FDFC22FCE4CFCECDCC24E0501174FF8076
:100AF700EDC3CC13CCCD13CDCE13CECF13CF047013
:070B0700F030D5DE020C0CFA
:100B0E00E9D2E7C933E833F892D5EDD2E7CD33EC2D
:070B1E0033FC5002B2D522A6
:100B2500EC30E7100FBF000C0EBE00080DBD000431
:100B35000BEB6014A2D5EB13FCED92E7FD2274FFDD
:100B4500FCFDFEFF22E480F8A2D574FF13FC7D8036
:030B5500E480EF4A
:10157600021669E493A3F8E493A34003F68001F20C
:1015860008DFF48029E493A3F85407240CC8C33376
:10159600C4540F4420C8834004F456800146F6DF45
:1015A600E4800B0102040810204080901CFCE47EBD
:1015B600019360BCA3FF543F30E509541FFEE4933A
:1015C600A360010ECF54C025E060A840B8E493A301
:1015D600FAE493A3F8E493A3C8C582C8CAC583CA2C
:1015E600F0A3C8C582C8CAC583CADFE9DEE780BEE4
:011D040000DE
:100B5800BB010689828A83E0225002E722BBFE029B
:090B6800E32289828A83E49322CE
:100B7100BB010989828A83F8E028F022500327F714
:100B810022BBFE05F8E328F3228A838982F8E493E5
:020B9100282218
:100B9300BB010689828A83F0225002F722BBFE0141
:020BA300F3223B
:100BA500EF8DF0A4A8F0CF8CF0A428CE8DF0A42E64
:020BB500FE221E
:100BB700BC000BBE0029EF8DF084FFADF022E4CC22
:100BC700F875F008EF2FFFEE33FEEC33FCEE9DECEB
:100BD700984005FCEE9DFE0FD5F0E9E4CEFD22ED31
:100BE700F8F5F0EE8420D21CFEADF075F008EF2F7B
:100BF700FFED33FD4007985006D5F0F222C398FD6C
:050C07000FD5F0EA2208
:0E0C0C00C3E49FFFE49EFEE49DFDE49CFC22F9
:00000001FF
