:1006BC00E4F580C2A6D2A5D2A7E58020E7FBC2A7AD
:0106CC00220B
:1006CD001206BCC2A6C2A58F80D2A7000000C2A789
:0106DD0022FA
:10062D00F582E433F583AB0BAA0CA90D120600FF7E
:10063D001206BCD2A6C2A58F80D2A7000000C2A709
:01064D00228A
:060003004307B80206CD20
:0606EE004307C00206CD27
:0706DE0004FF120003AF044A
:0906E50053073F4307400206CD14
:0606F40043073E0206CDA3
:10068E00EF14600C14600E2402700EC2B2C2B322BC
:0A069E00C2B2D2B322D2B2C2B3221C
:10066F0012068EE4FEAF06120003E4FF1206E5E465
:0E067F00FDE4FF12063D0DBD40F70EBE08E77C
:01068D00224A
:10064E001206BCE4FF12068E1206F4E4FF12068EAA
:10065E000F1206F4E4FF12068E12066FE4FF020676
:01066E00EE9D
:0205C500AC0385
:1005C70012068EAF051206E0E4FEAB0EAA0FA910C5
:1005D7008E827583001206390EBE08EEED1206DE16
:1005E700E4FEEE2408F582E433F583AB0EAA0FA9E7
:0805F700101206390EBE08EADD
:0105FF0022D9
:04052D008D09AC0385
:1005310012068EAF091206E0E4FEAB0BAA0CA90D60
:100541008E827583001206390EBE20EEE509120671
:10055100DEE4FEEE242012062D0EBE20F6E509246F
:10056100021206DFE4FEEE244012062D0EBE20F636
:10057100E50924031206DFE4FEEE246012062D0EC7
:03058100BE20F6A3
:010584002254
:10022F0000E010080810E000000F102020100F0051
:10023F0000001010F8000000000020203F202000D8
:10024F00007008080808F000003028242221300030
:10025F0000300808088870000018202121221C0097
:10026F000000804030F8000000060524243F2424BD
:10027F0000F88888880808000019202020110E0037
:10028F0000E0108888900000000F112020201F0030
:10029F0000180808886818000000003E01000000E0
:1002AF000070880808887000001C222121221C0081
:1002BF0000F008080810E0000001122222110F00C0
:1002CF00000000C0C000000000000030300000003F
:1002DF00000000000000000000000000000000000F
:1002EF00000080C0E0E0E0E0E6EEFEFCF8E0E0E0D9
:1002FF00E0E0F8FCFEEEE6E0E0E0E0C080000000A9
:10030F0000FFFFFFFF01C1C1E1E1E1E1E1010101F7
:10031F000101E1E1E1E1E1C1C101FFFFFFFE0000E9
:10032F0000FFFFFFFF000101010100107060703836
:10033F0060603000000101010100FFFFFFFF0000BE
:10034F0000030F1F1F3E3E7C7C7C3C3C3C3C3C3CF6
:10035F003C3C3C3C3C7C7C7C3C3E1F1F0F03000024
:1006A80002113CB0011400011600011300011501EC
:0306B80001171413
:10000E00E4F508750975750A3030900302022E303A
:10001E0090FDC28C20900302022920910F3091FD99
:10002E000508E508D394024003E4F508E5081470CA
:10003E00030200E9147003020186240270D6209296
:10004E000F3092FD0513E513D3943B4003E4F513F3
:10005E00750EFF750F027510DF7B207D047F021277
:10006E0005C5750EFF750F027510DF7B287D047FA9
:10007E00021205C5E50A150AAE09700215094E7081
:10008E00F3750975750A30E51375F00A8475F0106D
:10009E00A4242FF9740235F0750EFFF50F89107B2D
:1000AE00207D047F021205C5E51375F00A84E5F084
:1000BE0075F010A4242FF9740235F0750EFFF50FAC
:1000CE0089107B287D047F021205C5E50A150AAE4C
:1000DE0009700215094E70F302022020920F309221
:1000EE00FD0516E516D3943B4003E4F516750EFF99
:1000FE00750F027510DF7B087D047F021205C57532
:10010E000EFF750F027510DF7B107D047F02120546
:10011E00C5E50A150AAE09700215094E70F3750988
:10012E0075750A30E51675F00A8475F010A4242F43
:10013E00F9740235F0750EFFF50F89107B087D04FA
:10014E007F021205C5E51675F00A84E5F075F0100C
:10015E00A4242FF9740235F0750EFFF50F89107B6C
:10016E00107D047F021205C5E50A150AAE0970025C
:10017E0015094E70F302022020920F3092FD0514E5
:10018E00E514D394174003E4F514750EFF750F02B2
:10019E007510DF7B307D047F011205C5750EFF756E
:1001AE000F027510DF7B387D047F011205C5E50A4D
:1001BE00150AAE09700215094E70F3750975750AA8
:1001CE0030E51475F00A8475F010A4242FF974022A
:1001DE0035F0750EFFF50F89107B307D047F01120F
:1001EE0005C5E51475F00A84E5F075F010A4242F0A
:1001FE00F9740235F0750EFFF50F89107B387D040A
:10020E007F011205C5E50A150AAE09700215094EE1
:10021E0070F3750975750A300200223090FDD28C8C
:01022E0022AD
:10036F0012064EE4FF12066FE4FF1206EE750BFF46
:10037F00750C02750DEFE4FB7D027F0112052D75E3
:10038F000EFF750F027510CFE4FB7D047F0212057F
:10039F00C5750EFF750F027510CF7B187D047F0298
:1003AF001205C553890F438901E511F58C85128A12
:1003BF00D2AFD2A9D28CE515700302049BE5147558
:1003CF00F00A8475F010A4242FF9740235F0750E1D
:1003DF00FFF50F89107B307D047F011205C5E514F1
:1003EF0075F00A84E5F075F010A4242FF974023526
:1003FF00F0750EFFF50F89107B387D047F01120514
:10040F00C5E51675F00A8475F010A4242FF974024F
:10041F0035F0750EFFF50F89107B087D047F0212F2
:10042F0005C5E51675F00A84E5F075F010A4242FC4
:10043F00F9740235F0750EFFF50F89107B107D04EE
:10044F007F021205C5E51375F00A8475F010A42418
:10045F002FF9740235F0750EFFF50F89107B207D93
:10046F00047F021205C5E51375F00A84E5F075F0F7
:10047F0010A4242FF9740235F0750EFFF50F8910B3
:10048F007B287D047F021205C5E4F51512000E02CC
:02049F0003C593
:03000B0002058566
:10058500C0E0C0D0E511F58C85128A1517E5177006
:100595002A0513751501E513D3943B400575130022
:1005A5000516E516D3943B40057516000514E514AC
:1005B500D394174003751400751714D0D0D0E032CA
:030000000204A156
:0C04A100787FE4F6D8FD7581170204E8AE
:10060000BB010CE58229F582E5833AF583E02250AF
:1006100006E92582F8E622BBFE06E92582F8E222F9
:0D062000E58229F582E5833AF583E4932213
:1004AD0002036FE493A3F8E493A34003F68001F2F3
:1004BD0008DFF48029E493A3F85407240CC8C33350
:1004CD00C4540F4420C8834004F456800146F6DF1F
:1004DD00E4800B01020408102040809006A8E47E01
:1004ED00019360BCA3FF543F30E509541FFEE49314
:1004FD00A360010ECF54C025E060A840B8E493A3DB
:10050D00FAE493A3F8E493A3C8C582C8CAC583CA05
:10051D00F0A3C8C582C8CAC583CADFE9DEE780BEBD
:0106BB00003E
:00000001FF
