:100D2E00D2D1CDEAB3C9B0E5C0B6B8F9D2A9C1BF28
:100D3E0000D2D1CDEAB3C9B0A2C4AACEF7C1D6D2E1
:100D4E00A9C1BF00B0B4CAB1B3D4D2A9D6D00020C5
:100D5E002000202020202020202000B3D4D2A9CA99
:100D6E00B1BCE4B5BDC1CB00C7EBB0B4CAB1B3D40E
:100D7E00D2A9003000B0A2C4AACEF7C1D60030303E
:0C0D8E003A20303000B0E5C0B6B8F900E3
:100F5700033A373B170345003A16034D003A16028A
:100F67005800000139000157000123000241000029
:090F770002430000C10001380032
:1002F000E5391202CA035002031705033306038CC3
:100300000904390A04F80B03610D03E00E04900F91
:10031000055D1000000595E4F5390538E5386542BE
:100320007002E5416003020595F5387BFF7A0D798F
:100330002E801AE4F5390538E53865447002E54346
:100340006003020595F5387BFF7A0D793F020F199E
:100350007BFF7A0D7952120F19E4F539D2A0D20041
:1003600022E5236401700E0547E547D39417402D1D
:10037000E4F5478028E52364026003020595054FF4
:10038000E54FD39417403FE4F54F803AE5236401ED
:100390007025D54708E547B455037547177D057F98
:1003A00004121060E54775F00A84900AF893FF1272
:1003B00011E3E547020484E5236402600302059526
:1003C000D54F03754F177D057F04121060E54F75FB
:1003D000F00A84900AF893FF1211E3E54F020484B7
:1003E000E523640170250546E546D3943B4003E4CC
:1003F000F5467D077F04121060E54675F00A84908B
:100400000AF893FF1211E3E5468079E52364026060
:1004100003020595054EE54ED3943B4003E4F54EAB
:100420007D077F04121060E54E75F00A84900AF88B
:1004300093FF1211E3E54E804BE5236401701FD555
:10044000460375463B7D077F04121060E54675F054
:100450000A84900AF893FF1211E3E5468026E5230B
:1004600064026003020595D54E03754E3B7D077F00
:1004700004121060E54E75F00A84900AF893FF129A
:1004800011E3E54E75F00A84E5F0900AF802055490
:10049000E5236401702D0542E54270020541D394C5
:1004A00009E54194004005E4F541F5427D037F03F1
:1004B00012106074F82542F582740A3541F583E420
:1004C000020554E523640260030205950544E544F2
:1004D00070020543D39409E54394004005E4F543D5
:1004E000F5447D037F0312106074F82544F582748F
:1004F0000A3543F583E4805CE52364017029E54215
:10050000154270021541E54245417005F5417542BD
:10051000097D037F0312106074F82542F582740A86
:100520003541F583E4802DE52364027068E54415C8
:100530004470021543E54445437005F5437544098D
:100540007D037F0312106074F82544F582740A3528
:1005500043F583E493FF1211E3E4F53922E4F5391E
:10056000E523640170028006E523640270277BFFA7
:100570007A0D795D7D037F0312100D7BFF7A0D7973
:1005800060E4FD7F0412100D7BFF7A0D79607D051C
:060590007F0412100D2291
:100968007D037F021210607F201211E3E53C75F0D1
:100978000A84900AF893FF1211E3E53C75F00A84A3
:10098800E5F0900AF893FF1211E37F3A1211E3E5BC
:100998003B75F00A84900AF893FF1211E3E53B7562
:1009A800F00A84E5F0900AF893FF1211E37F3A12F7
:1009B80011E3E53A75F00A84900AF893FF1211E3FF
:1009C800E53A75F00A84E5F0900AF893FF1211E30E
:1009D8007D047F031210607F201211E3AE3FAF4009
:1009E8007C007D6412028674F82FF582740A3EF545
:1009F80083E493FF1211E3AE3FAF407C007D6412A5
:100A080002867E007F0ACFCDCFCECCCE120286746E
:100A1800F82FF582740A3EF583E493FF1211E37F01
:100A28002E1211E3AE3FAF407C007D0A120286749D
:0F0A3800F82DF582740A3CF583E493FF0211E375
:10116B005389F0438901758A18758CFCC28DD28C1A
:07117B00D2A9D2AFC2B922D4
:03000B00020E4C96
:040E4C00C0E0C0D072
:100E5000758A18758CFC0522E52270020521C39461
:100E6000E8E52194034027752100752200053AE545
:100E70003A943C4019753A00053BE53B943C400EE2
:0E0E8000753B00053CE53C94184003753C00B2
:050E8E00D0D0D0E032DD
:100596001211BA120D9A12118212116B120F9412C5
:1005A6000FD112070B8F39E546B53B08E547B53C39
:1005B6000330000FE54E653B7023E54F653C701D2B
:1005C60020001A7BFF7A0D7969120F19B295C2AC19
:1005D600B2A0D2AC7BFF7A0D7976120F191202F017
:1005E6000559E55970020558AE58FF7C007D191271
:1005F6000231ED4C701BC2AC120CB3E4FBFA79204D
:10060600784112002612016A8E3F8F40120968D285
:10061600ACAE3FAF407C037DE812028674082FF82B
:10062600E6F549AE3FAF407C037DE8120286AA0498
:10063600AB057D647C00AF03AE0212028674082F00
:10064600F8E6F54A7D647C00AF03AE02120286AA84
:1006560004AB057D0A7C00AF03AE02120286740865
:100666002FF8E64480F54B7D0A7C00AF03AE0212FC
:10067600028674082DF8E6F54C7B007A0079487DF1
:1006860004120B1AAE58AF597C007DC8120231ED28
:100696004C60030205A8AE3FAF407C037DE8120222
:1006A60086EF2430F551AE3FAF407C037DE8120261
:1006B60086AA04AB057D647C00AF03AE02120286F7
:1006C600EF2430F5527D647C00AF03AE0212028641
:1006D600AA04AB057D0A7C00AF03AE02120286EFC8
:1006E6002430F55375542E7D0A7C00AF03AE0212FA
:1006F6000286ED2430F555E4F556FB7A0079501262
:050706000F190205A817
:0300230002086D63
:10086D00C0E0C0F0C083C082C0D075D000C000C051
:0D087D0001C002C003C004C005C006C007D2
:10088A0020980302094DC2987424255AF8A699E5BE
:10089A0024B42B04055A8003755A00E55A640A6089
:1008AA000302094DF55AE52DB43105C2A002094DDE
:1008BA00E52D6432702BD2A07BFF7A0D795D7D0322
:1008CA007F0312100D7BFF7A0D7960E4FD7F04121D
:1008DA00100D7BFF7A0D79607D057F0412100D8063
:1008EA0062E52D6433702C7BFF7A0D79817D037F5D
:1008FA000312100D7BFF7A0D7983E4FD7F04121039
:10090A000D7BFF7A0D798C7D057F0412100D7523FE
:10091A00018030E52D6434702A7BFF7A0D79817D60
:10092A00037F0312100D7BFF7A0D7993E4FD7F0498
:10093A0012100D7BFF7A0D798C7D057F0412100D44
:03094A0075230210
:10094D00D007D006D005D004D003D002D001D000FE
:0B095D00D0D0D082D083D0F0D0E032A8
:10118200439850438920758780758DFA858D8BC26F
:06119200ACD2AFD28E22A8
:0E11C900C2ACC2998F993099FDC299D2AC2266
:101036008B198A1A891BAB19AA1AA91B1201EBFF75
:1010460060171211C97F057E001211EF7401251B6E
:0A105600F51BE4351AF51A80DD22BF
:100C380041542B43495053454E443D302C313600E6
:100C480041542B43574D4F44453D320041542B43AB
:100C5800575341503D2245535038323636222C22C4
:100C6800313233343536222C31312C300041542B7B
:100C780043495041503D223139322E3136382E34D5
:100C88002E31220041542B5253540041542B4349D6
:100C9800504D55583D310041542B4349505345520E
:0B0CA8005645523D312C3830383000EA
:100F800011083F065B4F666D7D077F6F777C395E8A
:030F900079710074
:060B1A008B5E8A5F89601A
:100B2000E4F561ED14F562F561E561C39408507B6D
:100B3000E561B40800504D900B3EF8282873020B75
:100B400056020B5A020B5E020B62020B66020B6E20
:100B5000020B76020B7ED2A4800ED2A48012D2A405
:100B60008016D2A4801AC2A4D2A3D2A28016C2A494
:100B7000D2A3C2A2800EC2A4C2A3D2A28006C2A4E3
:100B8000C2A3C2A2C3E5619562FFE49400AB5EAA72
:100B90005FA9608F82F583120204F5807F647E0076
:0B0BA0001211EFE4F5800561020B2943
:010BAB002227
:100F19008B5E8A5F89607BFF7A0C7938120E047FB9
:100F29000A7E0012111CAB5EAA5FA9601201EBFFD9
:100F390060171211C97F057E001211EF7401256037
:0E0F4900F560E4355FF55F80DD7F0A0211C9B7
:100E04008B618A628963AB61AA62A9631201EBFFF9
:100E140060171211C97F057E001211EF740125635A
:100E2400F563E43562F56280DD7F057E001211EF23
:100E34007F0D1211C97F057E001211EF7F0A121176
:080E4400C97F0A7E0002111CA7
:100F94007BFF7A0C7948120E047BFF7A0C79541289
:100FA4000E047BFF7A0C7975120E047BFF7A0C79A0
:100FB4008C120E047FD07E0712111C7BFF7A0C79F1
:0D0FC40093120E047BFF7A0C799F020E043D
:0B11EF00EF1FAC0670011E4C70F622D2
:10111C00D3EF9400EE940040147D6E7C00ED1D70B6
:0D112C00011CED4C70F7EF1F70E61E80E314
:011139002293
:10070B00E4F55E7590FFC2932097063097FD755EFA
:10071B00012096083096FDB2A1755E052095147FD9
:10072B00147E0012111C3095FD7F147E0012111CDB
:10073B00755E092094147F147E0012111C3094FDF9
:10074B007F147E0012111C755E0D7590FFC29220F6
:10075B0097063097FD755E022096147F147E00126B
:10076B00111C3096FD7F147E0012111C755E062045
:10077B0095147F147E0012111C3095FD7F147E00A2
:10078B0012111C755E0A2094147F147E0012111C2A
:10079B003094FD7F147E0012111C755E0E7590FF58
:1007AB00C2912097147F147E0012111C3097FD7F8D
:1007BB00147E0012111C755E032096147F147E00AC
:1007CB0012111C3096FD7F147E0012111C755E07F2
:1007DB002095147F147E0012111C3095FD7F147E22
:1007EB000012111C755E0B2094147F147E001211E5
:1007FB001C3094FD7F147E0012111C755E0F7590DA
:10080B00FFC2902097147F147E0012111C3097FDAD
:10081B007F147E0012111C755E042096147F147ECB
:10082B000012111C3096FD7F147E0012111C755E98
:10083B00082095147F147E0012111C3095FD7F1437
:10084B007E0012111C755E0C2094147F147E001216
:10085B00111C3094FD7F147E0012111C755E10AFBD
:01086B005E2E
:01086C002269
:100A4700202020202020202020202020202020209F
:100A5700002D2DD6C7C4DCD2A9CFE4CFB5CDB32D99
:100A67002D00CAB1BCE4A3BA00C1D0B1EDA3BA202E
:100A770020202020202020A1E60020202020202048
:100A870057656C636F6D652020200020506C656191
:100A97007365205761697474696E672E2020002082
:100AA700506C65617365205761697474696E672E50
:100AB7002E0020506C6561736520576169747469F5
:100AC7006E672E2E2E0020506C656173652057616E
:100AD700697474696E672E2E2E2E0020506C656126
:100AE7007365205761697474696E672E2E2E2E2EDA
:100AF7000030313233343536373839414243444593
:100B07004600303132333435363738394142434481
:030B170045460050
:0D1153007F197E00121160D2A77F327E004E
:0B116000EF1FAC0670011E4C70F62261
:0C11D7008F80C2A5C2A6121153C2A7222D
:0C11E3008F80C2A5D2A6121153C2A72211
:10106000EF24FE601014601314601624037016ED54
:101070002480FB8010ED2490FB800AED2488FB8007
:0A10800004ED2498FBAF030211D722
:10113A00AA03121060EAC4540F900AF893FF12111E
:09114A00E3EA540F93FF0211E3E4
:1010DA008B828A83121060AE83AF827C007D0A12F3
:1010EA00023174F82DF582740A3CF583E493FF0209
:0210FA0011E300
:06100700E4FD7BFF7F0207
:10100D008B5E8A5F8960121060AB5EAA5FA9601269
:10101D0001EBFF60131211E374012560F560E435F7
:09102D005FF55F12115C80E12205
:10000E00AA03121060BA01047F0F80027FC0121182
:02001E00D722E7
:0F11BA007F301211D77F0C1211D77F010211D78E
:10108A007BFF7A0A7947E4FD7F0112100D7A0A790B
:10109A00471210097BFF7A0A79477F0312100D7BEA
:0A10AA00FF7A0A79477F0402100D57
:100FD1007BFF7A0A7958E4FD7F0112100D7BFF7ABD
:100FE1000A79697F0212100D7BFF7A0A79707F03FB
:100FF10012100D7BFF7A0A79477F0412100DE4FB72
:061001000D7F0102000E4C
:100D9A007BFF7A0A7981E4FD7F0112100D7F647E60
:100DAA000012111C7A0A79921210077FE87E031248
:100DBA00111C7A0A79A61210077F207E0312111CD1
:100DCA007BFF7A0A79B9E4FD7F0212100D7F587E03
:100DDA000212111C7BFF7A0A79CDE4FD7F02121000
:100DEA000D7FF47E0112111C7BFF7A0A79E2E4FD81
:0A0DFA007F0212100D7F010211D7D5
:10119800C2B77F4B7E001211EFD2B77F027E0002EA
:0211A80011EF45
:100E9300E4F56530B712E565C39414500B05657F1F
:100EA300017E001211EF80EBE565C3941440037FCC
:100EB3000122E4F56520B712E565C39414500B05D0
:100EC300657F017E001211EF80EBE565C39414404A
:060ED300037F01227F00F5
:010ED90022F6
:1010FC00E4F567C2B70000D2B7000030B7057567DA
:0F110C00018003E4F5677F057E001211EFAF67E6
:01111B0022B1
:1010B400E4F565F566FFF5651210FCEFC4333333D0
:1010C4005480FEE566C3134EF5660565E565C39475
:0510D4000840E5AF66D5
:0110D90022F4
:020EDA008F6522
:100EDC00E4F566F567F566E5655401F567E565C308
:100EEC0013F565E567600FC2B70000D2B77F067EC9
:100EFC00001211EF800DC2B77F067E001211EFD2E7
:0C0F0C00B700000566E566C3940840CB02
:010F180022B6
:1011AA00121198120E937FCC120EDA7F44020EDAD5
:07000300121198120E932266
:100CB300E4FFF562F563F5641211AA121198120E9E
:100CC300937FCC120EDA7FBE120EDA1210B48F624B
:100CD3001210B4EFFE7C00E42562F564EC3EF5638C
:100CE30054F8FEEEB4F821E564F4FFE563F4FEEF97
:100CF3002401F564E43EF563FCAD64E4120131E4E0
:100D0300FBFA798078BD800FAC63AD64E4120131E6
:100D1300E4FBFA7980783D1200268F618E608D5F47
:0A0D23008C5EAF61AE60AD5FAC5EA8
:010D2D0022A3
:10002600EC4D6011E8497017ED33EC3304600DE4D4
:10003600FCFFFEFD22E933E8330470F80201D61214
:1000460001A158046009E4CC248150062850090215
:1000560001E02840030201DDC0E0EB4A7044B980AC
:1000660006D0E0FB0201CCEF4E701CBD8008EBFF12
:10007600EAFEE9FD80EBE98DF0A4FEE5F002010F52
:10008600E9CDF9EAFEEBFFEF89F0A4FCE5F0CE89B5
:10009600F0A42EFFE435F0CD89F0A42DFEE435F072
:1000A6008067EF4E7005BD80D780C3EF8BF0A4ACA0
:1000B600F0EE8BF0A42CFCE435F0F8EF8AF0A42CDB
:1000C600E5F038FCE433CB8DF0A42CFCE5F03BF8EE
:1000D600EE8AF0A42CFCE5F038F8E433CF89F0A4DE
:1000E6002CFCE5F038CF3400CE89F0A42FFFE5F0E4
:1000F6003EFEE433C98DF0A42EFEE5F039CD8AF03C
:10010600A42FFFE5F03EFEE43DFD33D0E0FB5007B3
:100116000BBB000F0201E0EC2CFCEF33FFEE33FECD
:06012600ED33FD0201B8FB
:10012C0075F020800E75F010800575F0087D007E4E
:10013C00007F003392D530D5031202BCEC33401053
:10014C00EF33FFEE33FEED33FDEC33FCD5F0ED2257
:0E015C00E5F0247EA2D513CC92E7CDCEFF2293
:10016A00EDD2E7CD33EC3392D524814006E4FFFE8D
:10017A00FDFC22FCE4CFCECDCC24E0501174FF80EC
:10018A00EDC3CC13CCCD13CDCE13CECF13CF047089
:07019A00F030D5DE0202BCCB
:1001A100E9D2E7C933E833F892D5EDD2E7CD33ECA4
:0701B10033FC5002B2D5221D
:1001B800EC30E7100FBF000C0EBE00080DBD0004A8
:1001C8000BEB6014A2D5EB13FCED92E7FD2274FF54
:1001D800FCFDFEFF22E480F8A2D574FF13FC7D80AD
:0301E800E480EFC1
:03000000020BAC44
:0C0BAC00787FE4F6D8FD758167020BF33A
:1001EB00BB010689828A83E0225002E722BBFE0212
:0901FB00E32289828A83E4932245
:10020400BB010CE58229F582E5833AF583E02250AF
:1002140006E92582F8E622BBFE06E92582F8E222F9
:0D022400E58229F582E5833AF583E4932213
:10023100BC000BBE0029EF8DF084FFADF022E4CCB1
:10024100F875F008EF2FFFEE33FEEC33FCEE9DEC7A
:10025100984005FCEE9DFE0FD5F0E9E4CEFD22EDC0
:10026100F8F5F0EE8420D21CFEADF075F008EF2F0A
:10027100FFED33FD4007985006D5F0F222C398FDFB
:050281000FD5F0EA2298
:10028600C2D5EC30E709B2D5E4C39DFDE49CFCEE93
:1002960030E715B2D5E4C39FFFE49EFE120231C3D8
:1002A600E49DFDE49CFC800312023130D507C3E4D3
:0602B6009FFFE49EFE2202
:0E02BC00C3E49FFFE49EFEE49DFDE49CFC2253
:1002CA00D083D082F8E4937012740193700DA3A3C3
:1002DA0093F8740193F5828883E4737402936860D7
:0602EA00EFA3A3A380DFD7
:100BB800020596E493A3F8E493A34003F68001F2B8
:100BC80008DFF48029E493A3F85407240CC8C3333E
:100BD800C4540F4420C8834004F456800146F6DF0D
:100BE800E4800B0102040810204080900F57E47E37
:100BF800019360BCA3FF543F30E509541FFEE49302
:100C0800A360010ECF54C025E060A840B8E493A3C8
:100C1800FAE493A3F8E493A3C8C582C8CAC583CAF3
:100C2800F0A3C8C582C8CAC583CADFE9DEE780BEAB
:010F9300005D
:00000001FF
